{
	"contract.sol": {
		"security_paper_exchange": {
			"abi": [
				{
					"inputs": [
						{
							"internalType": "string",
							"name": "_security_paper_name",
							"type": "string"
						},
						{
							"internalType": "uint256",
							"name": "_price",
							"type": "uint256"
						}
					],
					"name": "add_security_paper",
					"outputs": [],
					"stateMutability": "nonpayable",
					"type": "function"
				},
				{
					"inputs": [
						{
							"internalType": "uint256",
							"name": "_security_paper_id",
							"type": "uint256"
						}
					],
					"name": "buy_security_paper",
					"outputs": [],
					"stateMutability": "payable",
					"type": "function"
				},
				{
					"inputs": [
						{
							"internalType": "uint256",
							"name": "_security_paper_id",
							"type": "uint256"
						},
						{
							"internalType": "address payable",
							"name": "_newOwner",
							"type": "address"
						}
					],
					"name": "exchange_security_paper_ownership",
					"outputs": [],
					"stateMutability": "nonpayable",
					"type": "function"
				},
				{
					"inputs": [
						{
							"internalType": "uint256",
							"name": "_security_paper_id",
							"type": "uint256"
						}
					],
					"name": "get_security_paper_details",
					"outputs": [
						{
							"internalType": "string",
							"name": "",
							"type": "string"
						},
						{
							"internalType": "uint256",
							"name": "",
							"type": "uint256"
						},
						{
							"internalType": "address",
							"name": "",
							"type": "address"
						},
						{
							"internalType": "address",
							"name": "",
							"type": "address"
						}
					],
					"stateMutability": "view",
					"type": "function"
				},
				{
					"inputs": [],
					"name": "total_securities",
					"outputs": [
						{
							"internalType": "uint256",
							"name": "",
							"type": "uint256"
						}
					],
					"stateMutability": "view",
					"type": "function"
				}
			],
			"devdoc": {
				"kind": "dev",
				"methods": {},
				"version": 1
			},
			"evm": {
				"assembly": "    /* \"contract.sol\":60:4976  contract security_paper_exchange {... */\n  mstore(0x40, 0x80)\n    /* \"contract.sol\":662:663  0 */\n  0x00\n    /* \"contract.sol\":631:663  uint public total_securities = 0 */\n  dup1\n  sstore\n    /* \"contract.sol\":60:4976  contract security_paper_exchange {... */\n  callvalue\n  dup1\n  iszero\n  tag_1\n  jumpi\n  0x00\n  dup1\n  revert\ntag_1:\n  pop\n  dataSize(sub_0)\n  dup1\n  dataOffset(sub_0)\n  0x00\n  codecopy\n  0x00\n  return\nstop\n\nsub_0: assembly {\n        /* \"contract.sol\":60:4976  contract security_paper_exchange {... */\n      mstore(0x40, 0x80)\n      jumpi(tag_1, lt(calldatasize, 0x04))\n      shr(0xe0, calldataload(0x00))\n      dup1\n      0x74b461f1\n      eq\n      tag_2\n      jumpi\n      dup1\n      0xa74d10b7\n      eq\n      tag_3\n      jumpi\n      dup1\n      0xa96eaf5e\n      eq\n      tag_4\n      jumpi\n      dup1\n      0xab60c815\n      eq\n      tag_5\n      jumpi\n      dup1\n      0xae0fae05\n      eq\n      tag_6\n      jumpi\n    tag_1:\n      0x00\n      dup1\n      revert\n        /* \"contract.sol\":631:663  uint public total_securities = 0 */\n    tag_2:\n      callvalue\n      dup1\n      iszero\n      tag_7\n      jumpi\n      0x00\n      dup1\n      revert\n    tag_7:\n      pop\n      tag_8\n      tag_9\n      jump\t// in\n    tag_8:\n      mload(0x40)\n      tag_10\n      swap2\n      swap1\n      tag_11\n      jump\t// in\n    tag_10:\n      mload(0x40)\n      dup1\n      swap2\n      sub\n      swap1\n      return\n        /* \"contract.sol\":1746:2583  function add_security_paper(... */\n    tag_3:\n      callvalue\n      dup1\n      iszero\n      tag_12\n      jumpi\n      0x00\n      dup1\n      revert\n    tag_12:\n      pop\n      tag_13\n      0x04\n      dup1\n      calldatasize\n      sub\n      dup2\n      add\n      swap1\n      tag_14\n      swap2\n      swap1\n      tag_15\n      jump\t// in\n    tag_14:\n      tag_16\n      jump\t// in\n    tag_13:\n      stop\n        /* \"contract.sol\":4033:4971  function get_security_paper_details(uint _security_paper_id)... */\n    tag_4:\n      callvalue\n      dup1\n      iszero\n      tag_17\n      jumpi\n      0x00\n      dup1\n      revert\n    tag_17:\n      pop\n      tag_18\n      0x04\n      dup1\n      calldatasize\n      sub\n      dup2\n      add\n      swap1\n      tag_19\n      swap2\n      swap1\n      tag_20\n      jump\t// in\n    tag_19:\n      tag_21\n      jump\t// in\n    tag_18:\n      mload(0x40)\n      tag_22\n      swap5\n      swap4\n      swap3\n      swap2\n      swap1\n      tag_23\n      jump\t// in\n    tag_22:\n      mload(0x40)\n      dup1\n      swap2\n      sub\n      swap1\n      return\n        /* \"contract.sol\":2640:3308  function buy_security_paper(uint _security_paper_id)... */\n    tag_5:\n      tag_24\n      0x04\n      dup1\n      calldatasize\n      sub\n      dup2\n      add\n      swap1\n      tag_25\n      swap2\n      swap1\n      tag_20\n      jump\t// in\n    tag_25:\n      tag_26\n      jump\t// in\n    tag_24:\n      stop\n        /* \"contract.sol\":3380:3948  function exchange_security_paper_ownership(... */\n    tag_6:\n      callvalue\n      dup1\n      iszero\n      tag_27\n      jumpi\n      0x00\n      dup1\n      revert\n    tag_27:\n      pop\n      tag_28\n      0x04\n      dup1\n      calldatasize\n      sub\n      dup2\n      add\n      swap1\n      tag_29\n      swap2\n      swap1\n      tag_30\n      jump\t// in\n    tag_29:\n      tag_31\n      jump\t// in\n    tag_28:\n      stop\n        /* \"contract.sol\":631:663  uint public total_securities = 0 */\n    tag_9:\n      sload(0x00)\n      dup2\n      jump\t// out\n        /* \"contract.sol\":1746:2583  function add_security_paper(... */\n    tag_16:\n        /* \"contract.sol\":1896:1897  0 */\n      0x00\n        /* \"contract.sol\":1874:1898  msg.sender != address(0) */\n      0xffffffffffffffffffffffffffffffffffffffff\n      and\n        /* \"contract.sol\":1874:1884  msg.sender */\n      caller\n        /* \"contract.sol\":1874:1898  msg.sender != address(0) */\n      0xffffffffffffffffffffffffffffffffffffffff\n      and\n      sub\n        /* \"contract.sol\":1866:1918  require(msg.sender != address(0), \"Invalid address\") */\n      tag_33\n      jumpi\n      mload(0x40)\n      0x08c379a000000000000000000000000000000000000000000000000000000000\n      dup2\n      mstore\n      0x04\n      add\n      tag_34\n      swap1\n      tag_35\n      jump\t// in\n    tag_34:\n      mload(0x40)\n      dup1\n      swap2\n      sub\n      swap1\n      revert\n    tag_33:\n        /* \"contract.sol\":1929:1945  total_securities */\n      0x00\n      dup1\n        /* \"contract.sol\":1929:1947  total_securities++ */\n      dup2\n      sload\n      dup1\n      swap3\n      swap2\n      swap1\n      tag_36\n      swap1\n      tag_37\n      jump\t// in\n    tag_36:\n      swap2\n      swap1\n      pop\n      sstore\n      pop\n        /* \"contract.sol\":2106:2575  security_paper(... */\n      mload(0x40)\n      dup1\n      0xa0\n      add\n      0x40\n      mstore\n      dup1\n        /* \"contract.sol\":2135:2151  total_securities */\n      sload(0x00)\n        /* \"contract.sol\":2106:2575  security_paper(... */\n      dup2\n      mstore\n      0x20\n      add\n        /* \"contract.sol\":2286:2306  _security_paper_name */\n      dup4\n        /* \"contract.sol\":2106:2575  security_paper(... */\n      dup2\n      mstore\n      0x20\n      add\n        /* \"contract.sol\":2321:2327  _price */\n      dup3\n        /* \"contract.sol\":2106:2575  security_paper(... */\n      dup2\n      mstore\n      0x20\n      add\n        /* \"contract.sol\":2350:2360  msg.sender */\n      caller\n        /* \"contract.sol\":2106:2575  security_paper(... */\n      0xffffffffffffffffffffffffffffffffffffffff\n      and\n      dup2\n      mstore\n      0x20\n      add\n        /* \"contract.sol\":2495:2496  0 */\n      0x00\n        /* \"contract.sol\":2106:2575  security_paper(... */\n      0xffffffffffffffffffffffffffffffffffffffff\n      and\n      dup2\n      mstore\n      pop\n        /* \"contract.sol\":2071:2085  securitiesList */\n      0x01\n        /* \"contract.sol\":2071:2103  securitiesList[total_securities] */\n      0x00\n        /* \"contract.sol\":2086:2102  total_securities */\n      dup1\n      sload\n        /* \"contract.sol\":2071:2103  securitiesList[total_securities] */\n      dup2\n      mstore\n      0x20\n      add\n      swap1\n      dup2\n      mstore\n      0x20\n      add\n      0x00\n      keccak256\n        /* \"contract.sol\":2071:2575  securitiesList[total_securities] = security_paper(... */\n      0x00\n      dup3\n      add\n      mload\n      dup2\n      0x00\n      add\n      sstore\n      0x20\n      dup3\n      add\n      mload\n      dup2\n      0x01\n      add\n      swap1\n      dup2\n      tag_38\n      swap2\n      swap1\n      tag_39\n      jump\t// in\n    tag_38:\n      pop\n      0x40\n      dup3\n      add\n      mload\n      dup2\n      0x02\n      add\n      sstore\n      0x60\n      dup3\n      add\n      mload\n      dup2\n      0x03\n      add\n      exp(0x0100, 0x00)\n      dup2\n      sload\n      dup2\n      0xffffffffffffffffffffffffffffffffffffffff\n      mul\n      not\n      and\n      swap1\n      dup4\n      0xffffffffffffffffffffffffffffffffffffffff\n      and\n      mul\n      or\n      swap1\n      sstore\n      pop\n      0x80\n      dup3\n      add\n      mload\n      dup2\n      0x04\n      add\n      exp(0x0100, 0x00)\n      dup2\n      sload\n      dup2\n      0xffffffffffffffffffffffffffffffffffffffff\n      mul\n      not\n      and\n      swap1\n      dup4\n      0xffffffffffffffffffffffffffffffffffffffff\n      and\n      mul\n      or\n      swap1\n      sstore\n      pop\n      swap1\n      pop\n      pop\n        /* \"contract.sol\":1746:2583  function add_security_paper(... */\n      pop\n      pop\n      jump\t// out\n        /* \"contract.sol\":4033:4971  function get_security_paper_details(uint _security_paper_id)... */\n    tag_21:\n        /* \"contract.sol\":4140:4153  string memory */\n      0x60\n        /* \"contract.sol\":4164:4168  uint */\n      0x00\n        /* \"contract.sol\":4179:4186  address */\n      dup1\n        /* \"contract.sol\":4197:4204  address */\n      0x00\n        /* \"contract.sol\":4441:4442  0 */\n      dup1\n        /* \"contract.sol\":4381:4444  securitiesList[_security_paper_id].buyer != payable(address(0)) */\n      0xffffffffffffffffffffffffffffffffffffffff\n      and\n        /* \"contract.sol\":4381:4395  securitiesList */\n      0x01\n        /* \"contract.sol\":4381:4415  securitiesList[_security_paper_id] */\n      0x00\n        /* \"contract.sol\":4396:4414  _security_paper_id */\n      dup8\n        /* \"contract.sol\":4381:4415  securitiesList[_security_paper_id] */\n      dup2\n      mstore\n      0x20\n      add\n      swap1\n      dup2\n      mstore\n      0x20\n      add\n      0x00\n      keccak256\n        /* \"contract.sol\":4381:4421  securitiesList[_security_paper_id].buyer */\n      0x04\n      add\n      0x00\n      swap1\n      sload\n      swap1\n      0x0100\n      exp\n      swap1\n      div\n      0xffffffffffffffffffffffffffffffffffffffff\n      and\n        /* \"contract.sol\":4381:4444  securitiesList[_security_paper_id].buyer != payable(address(0)) */\n      0xffffffffffffffffffffffffffffffffffffffff\n      and\n      eq\n      iszero\n        /* \"contract.sol\":4381:4502  securitiesList[_security_paper_id].buyer != payable(address(0)) || msg.sender == securitiesList[_security_paper_id].owner */\n      dup1\n      tag_41\n      jumpi\n      pop\n        /* \"contract.sol\":4462:4476  securitiesList */\n      0x01\n        /* \"contract.sol\":4462:4496  securitiesList[_security_paper_id] */\n      0x00\n        /* \"contract.sol\":4477:4495  _security_paper_id */\n      dup7\n        /* \"contract.sol\":4462:4496  securitiesList[_security_paper_id] */\n      dup2\n      mstore\n      0x20\n      add\n      swap1\n      dup2\n      mstore\n      0x20\n      add\n      0x00\n      keccak256\n        /* \"contract.sol\":4462:4502  securitiesList[_security_paper_id].owner */\n      0x03\n      add\n      0x00\n      swap1\n      sload\n      swap1\n      0x0100\n      exp\n      swap1\n      div\n      0xffffffffffffffffffffffffffffffffffffffff\n      and\n        /* \"contract.sol\":4448:4502  msg.sender == securitiesList[_security_paper_id].owner */\n      0xffffffffffffffffffffffffffffffffffffffff\n      and\n        /* \"contract.sol\":4448:4458  msg.sender */\n      caller\n        /* \"contract.sol\":4448:4502  msg.sender == securitiesList[_security_paper_id].owner */\n      0xffffffffffffffffffffffffffffffffffffffff\n      and\n      eq\n        /* \"contract.sol\":4381:4502  securitiesList[_security_paper_id].buyer != payable(address(0)) || msg.sender == securitiesList[_security_paper_id].owner */\n    tag_41:\n        /* \"contract.sol\":4359:4568  require(... */\n      tag_42\n      jumpi\n      mload(0x40)\n      0x08c379a000000000000000000000000000000000000000000000000000000000\n      dup2\n      mstore\n      0x04\n      add\n      tag_43\n      swap1\n      tag_44\n      jump\t// in\n    tag_43:\n      mload(0x40)\n      dup1\n      swap2\n      sub\n      swap1\n      revert\n    tag_42:\n        /* \"contract.sol\":4748:4762  securitiesList */\n      0x01\n        /* \"contract.sol\":4748:4782  securitiesList[_security_paper_id] */\n      0x00\n        /* \"contract.sol\":4763:4781  _security_paper_id */\n      dup7\n        /* \"contract.sol\":4748:4782  securitiesList[_security_paper_id] */\n      dup2\n      mstore\n      0x20\n      add\n      swap1\n      dup2\n      mstore\n      0x20\n      add\n      0x00\n      keccak256\n        /* \"contract.sol\":4748:4787  securitiesList[_security_paper_id].name */\n      0x01\n      add\n        /* \"contract.sol\":4802:4816  securitiesList */\n      0x01\n        /* \"contract.sol\":4802:4836  securitiesList[_security_paper_id] */\n      0x00\n        /* \"contract.sol\":4817:4835  _security_paper_id */\n      dup8\n        /* \"contract.sol\":4802:4836  securitiesList[_security_paper_id] */\n      dup2\n      mstore\n      0x20\n      add\n      swap1\n      dup2\n      mstore\n      0x20\n      add\n      0x00\n      keccak256\n        /* \"contract.sol\":4802:4842  securitiesList[_security_paper_id].price */\n      0x02\n      add\n      sload\n        /* \"contract.sol\":4857:4871  securitiesList */\n      0x01\n        /* \"contract.sol\":4857:4891  securitiesList[_security_paper_id] */\n      0x00\n        /* \"contract.sol\":4872:4890  _security_paper_id */\n      dup9\n        /* \"contract.sol\":4857:4891  securitiesList[_security_paper_id] */\n      dup2\n      mstore\n      0x20\n      add\n      swap1\n      dup2\n      mstore\n      0x20\n      add\n      0x00\n      keccak256\n        /* \"contract.sol\":4857:4897  securitiesList[_security_paper_id].owner */\n      0x03\n      add\n      0x00\n      swap1\n      sload\n      swap1\n      0x0100\n      exp\n      swap1\n      div\n      0xffffffffffffffffffffffffffffffffffffffff\n      and\n        /* \"contract.sol\":4912:4926  securitiesList */\n      0x01\n        /* \"contract.sol\":4912:4946  securitiesList[_security_paper_id] */\n      0x00\n        /* \"contract.sol\":4927:4945  _security_paper_id */\n      dup10\n        /* \"contract.sol\":4912:4946  securitiesList[_security_paper_id] */\n      dup2\n      mstore\n      0x20\n      add\n      swap1\n      dup2\n      mstore\n      0x20\n      add\n      0x00\n      keccak256\n        /* \"contract.sol\":4912:4952  securitiesList[_security_paper_id].buyer */\n      0x04\n      add\n      0x00\n      swap1\n      sload\n      swap1\n      0x0100\n      exp\n      swap1\n      div\n      0xffffffffffffffffffffffffffffffffffffffff\n      and\n        /* \"contract.sol\":4726:4963  return (... */\n      dup4\n      dup1\n      sload\n      tag_45\n      swap1\n      tag_46\n      jump\t// in\n    tag_45:\n      dup1\n      0x1f\n      add\n      0x20\n      dup1\n      swap2\n      div\n      mul\n      0x20\n      add\n      mload(0x40)\n      swap1\n      dup2\n      add\n      0x40\n      mstore\n      dup1\n      swap3\n      swap2\n      swap1\n      dup2\n      dup2\n      mstore\n      0x20\n      add\n      dup3\n      dup1\n      sload\n      tag_47\n      swap1\n      tag_46\n      jump\t// in\n    tag_47:\n      dup1\n      iszero\n      tag_48\n      jumpi\n      dup1\n      0x1f\n      lt\n      tag_49\n      jumpi\n      0x0100\n      dup1\n      dup4\n      sload\n      div\n      mul\n      dup4\n      mstore\n      swap2\n      0x20\n      add\n      swap2\n      jump(tag_48)\n    tag_49:\n      dup3\n      add\n      swap2\n      swap1\n      0x00\n      mstore\n      keccak256(0x00, 0x20)\n      swap1\n    tag_50:\n      dup2\n      sload\n      dup2\n      mstore\n      swap1\n      0x01\n      add\n      swap1\n      0x20\n      add\n      dup1\n      dup4\n      gt\n      tag_50\n      jumpi\n      dup3\n      swap1\n      sub\n      0x1f\n      and\n      dup3\n      add\n      swap2\n    tag_48:\n      pop\n      pop\n      pop\n      pop\n      pop\n      swap4\n      pop\n      swap4\n      pop\n      swap4\n      pop\n      swap4\n      pop\n      swap4\n      pop\n        /* \"contract.sol\":4033:4971  function get_security_paper_details(uint _security_paper_id)... */\n      swap2\n      swap4\n      pop\n      swap2\n      swap4\n      jump\t// out\n        /* \"contract.sol\":2640:3308  function buy_security_paper(uint _security_paper_id)... */\n    tag_26:\n        /* \"contract.sol\":2747:2765  _security_paper_id */\n      dup1\n        /* \"contract.sol\":1538:1552  securitiesList */\n      0x01\n        /* \"contract.sol\":1538:1572  securitiesList[_security_paper_id] */\n      0x00\n        /* \"contract.sol\":1553:1571  _security_paper_id */\n      dup3\n        /* \"contract.sol\":1538:1572  securitiesList[_security_paper_id] */\n      dup2\n      mstore\n      0x20\n      add\n      swap1\n      dup2\n      mstore\n      0x20\n      add\n      0x00\n      keccak256\n        /* \"contract.sol\":1538:1578  securitiesList[_security_paper_id].price */\n      0x02\n      add\n      sload\n        /* \"contract.sol\":1520:1529  msg.value */\n      callvalue\n        /* \"contract.sol\":1520:1579  msg.value >= uint(securitiesList[_security_paper_id].price) */\n      lt\n      iszero\n        /* \"contract.sol\":1498:1652  require(... */\n      tag_52\n      jumpi\n      mload(0x40)\n      0x08c379a000000000000000000000000000000000000000000000000000000000\n      dup2\n      mstore\n      0x04\n      add\n      tag_53\n      swap1\n      tag_54\n      jump\t// in\n    tag_53:\n      mload(0x40)\n      dup1\n      swap2\n      sub\n      swap1\n      revert\n    tag_52:\n        /* \"contract.sol\":2791:2809  _security_paper_id */\n      dup2\n        /* \"contract.sol\":1341:1342  0 */\n      0x00\n        /* \"contract.sol\":1281:1344  securitiesList[_security_paper_id].buyer == payable(address(0)) */\n      0xffffffffffffffffffffffffffffffffffffffff\n      and\n        /* \"contract.sol\":1281:1295  securitiesList */\n      0x01\n        /* \"contract.sol\":1281:1315  securitiesList[_security_paper_id] */\n      0x00\n        /* \"contract.sol\":1296:1314  _security_paper_id */\n      dup4\n        /* \"contract.sol\":1281:1315  securitiesList[_security_paper_id] */\n      dup2\n      mstore\n      0x20\n      add\n      swap1\n      dup2\n      mstore\n      0x20\n      add\n      0x00\n      keccak256\n        /* \"contract.sol\":1281:1321  securitiesList[_security_paper_id].buyer */\n      0x04\n      add\n      0x00\n      swap1\n      sload\n      swap1\n      0x0100\n      exp\n      swap1\n      div\n      0xffffffffffffffffffffffffffffffffffffffff\n      and\n        /* \"contract.sol\":1281:1344  securitiesList[_security_paper_id].buyer == payable(address(0)) */\n      0xffffffffffffffffffffffffffffffffffffffff\n      and\n      eq\n        /* \"contract.sol\":1259:1413  require(... */\n      tag_56\n      jumpi\n      mload(0x40)\n      0x08c379a000000000000000000000000000000000000000000000000000000000\n      dup2\n      mstore\n      0x04\n      add\n      tag_57\n      swap1\n      tag_58\n      jump\t// in\n    tag_57:\n      mload(0x40)\n      dup1\n      swap2\n      sub\n      swap1\n      revert\n    tag_56:\n        /* \"contract.sol\":2857:2858  0 */\n      0x00\n        /* \"contract.sol\":2835:2859  msg.sender != address(0) */\n      0xffffffffffffffffffffffffffffffffffffffff\n      and\n        /* \"contract.sol\":2835:2845  msg.sender */\n      caller\n        /* \"contract.sol\":2835:2859  msg.sender != address(0) */\n      0xffffffffffffffffffffffffffffffffffffffff\n      and\n      sub\n        /* \"contract.sol\":2827:2879  require(msg.sender != address(0), \"Invalid address\") */\n      tag_60\n      jumpi\n      mload(0x40)\n      0x08c379a000000000000000000000000000000000000000000000000000000000\n      dup2\n      mstore\n      0x04\n      add\n      tag_61\n      swap1\n      tag_35\n      jump\t// in\n    tag_61:\n      mload(0x40)\n      dup1\n      swap2\n      sub\n      swap1\n      revert\n    tag_60:\n        /* \"contract.sol\":2890:2912  address payable _owner */\n      0x00\n        /* \"contract.sol\":2915:2929  securitiesList */\n      0x01\n        /* \"contract.sol\":2915:2949  securitiesList[_security_paper_id] */\n      0x00\n        /* \"contract.sol\":2930:2948  _security_paper_id */\n      dup6\n        /* \"contract.sol\":2915:2949  securitiesList[_security_paper_id] */\n      dup2\n      mstore\n      0x20\n      add\n      swap1\n      dup2\n      mstore\n      0x20\n      add\n      0x00\n      keccak256\n        /* \"contract.sol\":2915:2955  securitiesList[_security_paper_id].owner */\n      0x03\n      add\n      0x00\n      swap1\n      sload\n      swap1\n      0x0100\n      exp\n      swap1\n      div\n      0xffffffffffffffffffffffffffffffffffffffff\n      and\n        /* \"contract.sol\":2890:2955  address payable _owner = securitiesList[_security_paper_id].owner */\n      swap1\n      pop\n        /* \"contract.sol\":2966:2980  uint totalCost */\n      0x00\n        /* \"contract.sol\":2983:2997  securitiesList */\n      0x01\n        /* \"contract.sol\":2983:3017  securitiesList[_security_paper_id] */\n      0x00\n        /* \"contract.sol\":2998:3016  _security_paper_id */\n      dup7\n        /* \"contract.sol\":2983:3017  securitiesList[_security_paper_id] */\n      dup2\n      mstore\n      0x20\n      add\n      swap1\n      dup2\n      mstore\n      0x20\n      add\n      0x00\n      keccak256\n        /* \"contract.sol\":2983:3023  securitiesList[_security_paper_id].price */\n      0x02\n      add\n      sload\n        /* \"contract.sol\":2966:3023  uint totalCost = securitiesList[_security_paper_id].price */\n      swap1\n      pop\n        /* \"contract.sol\":3121:3127  _owner */\n      dup2\n        /* \"contract.sol\":3121:3136  _owner.transfer */\n      0xffffffffffffffffffffffffffffffffffffffff\n      and\n        /* \"contract.sol\":3121:3147  _owner.transfer(totalCost) */\n      0x08fc\n        /* \"contract.sol\":3137:3146  totalCost */\n      dup3\n        /* \"contract.sol\":3121:3147  _owner.transfer(totalCost) */\n      swap1\n      dup2\n      iszero\n      mul\n      swap1\n      mload(0x40)\n      0x00\n      mload(0x40)\n      dup1\n      dup4\n      sub\n      dup2\n      dup6\n      dup9\n      dup9\n      call\n      swap4\n      pop\n      pop\n      pop\n      pop\n      iszero\n      dup1\n      iszero\n      tag_63\n      jumpi\n      returndatasize\n      0x00\n      dup1\n      returndatacopy\n      revert(0x00, returndatasize)\n    tag_63:\n      pop\n        /* \"contract.sol\":3289:3299  msg.sender */\n      caller\n        /* \"contract.sol\":3238:3252  securitiesList */\n      0x01\n        /* \"contract.sol\":3238:3272  securitiesList[_security_paper_id] */\n      0x00\n        /* \"contract.sol\":3253:3271  _security_paper_id */\n      dup8\n        /* \"contract.sol\":3238:3272  securitiesList[_security_paper_id] */\n      dup2\n      mstore\n      0x20\n      add\n      swap1\n      dup2\n      mstore\n      0x20\n      add\n      0x00\n      keccak256\n        /* \"contract.sol\":3238:3278  securitiesList[_security_paper_id].buyer */\n      0x04\n      add\n      0x00\n        /* \"contract.sol\":3238:3300  securitiesList[_security_paper_id].buyer = payable(msg.sender) */\n      0x0100\n      exp\n      dup2\n      sload\n      dup2\n      0xffffffffffffffffffffffffffffffffffffffff\n      mul\n      not\n      and\n      swap1\n      dup4\n      0xffffffffffffffffffffffffffffffffffffffff\n      and\n      mul\n      or\n      swap1\n      sstore\n      pop\n        /* \"contract.sol\":2816:3308  {... */\n      pop\n      pop\n        /* \"contract.sol\":1663:1664  _ */\n      pop\n        /* \"contract.sol\":2640:3308  function buy_security_paper(uint _security_paper_id)... */\n      pop\n      pop\n      jump\t// out\n        /* \"contract.sol\":3380:3948  function exchange_security_paper_ownership(... */\n    tag_31:\n        /* \"contract.sol\":3535:3553  _security_paper_id */\n      dup2\n        /* \"contract.sol\":1065:1079  securitiesList */\n      0x01\n        /* \"contract.sol\":1065:1099  securitiesList[_security_paper_id] */\n      0x00\n        /* \"contract.sol\":1080:1098  _security_paper_id */\n      dup3\n        /* \"contract.sol\":1065:1099  securitiesList[_security_paper_id] */\n      dup2\n      mstore\n      0x20\n      add\n      swap1\n      dup2\n      mstore\n      0x20\n      add\n      0x00\n      keccak256\n        /* \"contract.sol\":1065:1105  securitiesList[_security_paper_id].owner */\n      0x03\n      add\n      0x00\n      swap1\n      sload\n      swap1\n      0x0100\n      exp\n      swap1\n      div\n      0xffffffffffffffffffffffffffffffffffffffff\n      and\n        /* \"contract.sol\":1051:1105  msg.sender == securitiesList[_security_paper_id].owner */\n      0xffffffffffffffffffffffffffffffffffffffff\n      and\n        /* \"contract.sol\":1051:1061  msg.sender */\n      caller\n        /* \"contract.sol\":1051:1105  msg.sender == securitiesList[_security_paper_id].owner */\n      0xffffffffffffffffffffffffffffffffffffffff\n      and\n      eq\n        /* \"contract.sol\":1029:1171  require(... */\n      tag_65\n      jumpi\n      mload(0x40)\n      0x08c379a000000000000000000000000000000000000000000000000000000000\n      dup2\n      mstore\n      0x04\n      add\n      tag_66\n      swap1\n      tag_44\n      jump\t// in\n    tag_66:\n      mload(0x40)\n      dup1\n      swap2\n      sub\n      swap1\n      revert\n    tag_65:\n        /* \"contract.sol\":3600:3601  0 */\n      0x00\n        /* \"contract.sol\":3579:3602  _newOwner != address(0) */\n      0xffffffffffffffffffffffffffffffffffffffff\n      and\n        /* \"contract.sol\":3579:3588  _newOwner */\n      dup3\n        /* \"contract.sol\":3579:3602  _newOwner != address(0) */\n      0xffffffffffffffffffffffffffffffffffffffff\n      and\n      sub\n        /* \"contract.sol\":3571:3622  require(_newOwner != address(0), \"Invalid address\") */\n      tag_68\n      jumpi\n      mload(0x40)\n      0x08c379a000000000000000000000000000000000000000000000000000000000\n      dup2\n      mstore\n      0x04\n      add\n      tag_69\n      swap1\n      tag_35\n      jump\t// in\n    tag_69:\n      mload(0x40)\n      dup1\n      swap2\n      sub\n      swap1\n      revert\n    tag_68:\n        /* \"contract.sol\":3756:3765  _newOwner */\n      dup2\n        /* \"contract.sol\":3713:3727  securitiesList */\n      0x01\n        /* \"contract.sol\":3713:3747  securitiesList[_security_paper_id] */\n      0x00\n        /* \"contract.sol\":3728:3746  _security_paper_id */\n      dup6\n        /* \"contract.sol\":3713:3747  securitiesList[_security_paper_id] */\n      dup2\n      mstore\n      0x20\n      add\n      swap1\n      dup2\n      mstore\n      0x20\n      add\n      0x00\n      keccak256\n        /* \"contract.sol\":3713:3753  securitiesList[_security_paper_id].owner */\n      0x03\n      add\n      0x00\n        /* \"contract.sol\":3713:3765  securitiesList[_security_paper_id].owner = _newOwner */\n      0x0100\n      exp\n      dup2\n      sload\n      dup2\n      0xffffffffffffffffffffffffffffffffffffffff\n      mul\n      not\n      and\n      swap1\n      dup4\n      0xffffffffffffffffffffffffffffffffffffffff\n      and\n      mul\n      or\n      swap1\n      sstore\n      pop\n        /* \"contract.sol\":3937:3938  0 */\n      0x00\n        /* \"contract.sol\":3878:3892  securitiesList */\n      0x01\n        /* \"contract.sol\":3878:3912  securitiesList[_security_paper_id] */\n      0x00\n        /* \"contract.sol\":3893:3911  _security_paper_id */\n      dup6\n        /* \"contract.sol\":3878:3912  securitiesList[_security_paper_id] */\n      dup2\n      mstore\n      0x20\n      add\n      swap1\n      dup2\n      mstore\n      0x20\n      add\n      0x00\n      keccak256\n        /* \"contract.sol\":3878:3918  securitiesList[_security_paper_id].buyer */\n      0x04\n      add\n      0x00\n        /* \"contract.sol\":3878:3940  securitiesList[_security_paper_id].buyer = payable(address(0)) */\n      0x0100\n      exp\n      dup2\n      sload\n      dup2\n      0xffffffffffffffffffffffffffffffffffffffff\n      mul\n      not\n      and\n      swap1\n      dup4\n      0xffffffffffffffffffffffffffffffffffffffff\n      and\n      mul\n      or\n      swap1\n      sstore\n      pop\n        /* \"contract.sol\":3380:3948  function exchange_security_paper_ownership(... */\n      pop\n      pop\n      pop\n      jump\t// out\n        /* \"#utility.yul\":7:84   */\n    tag_70:\n        /* \"#utility.yul\":44:51   */\n      0x00\n        /* \"#utility.yul\":73:78   */\n      dup2\n        /* \"#utility.yul\":62:78   */\n      swap1\n      pop\n        /* \"#utility.yul\":7:84   */\n      swap2\n      swap1\n      pop\n      jump\t// out\n        /* \"#utility.yul\":90:208   */\n    tag_71:\n        /* \"#utility.yul\":177:201   */\n      tag_125\n        /* \"#utility.yul\":195:200   */\n      dup2\n        /* \"#utility.yul\":177:201   */\n      tag_70\n      jump\t// in\n    tag_125:\n        /* \"#utility.yul\":172:175   */\n      dup3\n        /* \"#utility.yul\":165:202   */\n      mstore\n        /* \"#utility.yul\":90:208   */\n      pop\n      pop\n      jump\t// out\n        /* \"#utility.yul\":214:436   */\n    tag_11:\n        /* \"#utility.yul\":307:311   */\n      0x00\n        /* \"#utility.yul\":345:347   */\n      0x20\n        /* \"#utility.yul\":334:343   */\n      dup3\n        /* \"#utility.yul\":330:348   */\n      add\n        /* \"#utility.yul\":322:348   */\n      swap1\n      pop\n        /* \"#utility.yul\":358:429   */\n      tag_127\n        /* \"#utility.yul\":426:427   */\n      0x00\n        /* \"#utility.yul\":415:424   */\n      dup4\n        /* \"#utility.yul\":411:428   */\n      add\n        /* \"#utility.yul\":402:408   */\n      dup5\n        /* \"#utility.yul\":358:429   */\n      tag_71\n      jump\t// in\n    tag_127:\n        /* \"#utility.yul\":214:436   */\n      swap3\n      swap2\n      pop\n      pop\n      jump\t// out\n        /* \"#utility.yul\":442:517   */\n    tag_72:\n        /* \"#utility.yul\":475:481   */\n      0x00\n        /* \"#utility.yul\":508:510   */\n      0x40\n        /* \"#utility.yul\":502:511   */\n      mload\n        /* \"#utility.yul\":492:511   */\n      swap1\n      pop\n        /* \"#utility.yul\":442:517   */\n      swap1\n      jump\t// out\n        /* \"#utility.yul\":523:640   */\n    tag_73:\n        /* \"#utility.yul\":632:633   */\n      0x00\n        /* \"#utility.yul\":629:630   */\n      dup1\n        /* \"#utility.yul\":622:634   */\n      revert\n        /* \"#utility.yul\":646:763   */\n    tag_74:\n        /* \"#utility.yul\":755:756   */\n      0x00\n        /* \"#utility.yul\":752:753   */\n      dup1\n        /* \"#utility.yul\":745:757   */\n      revert\n        /* \"#utility.yul\":769:886   */\n    tag_75:\n        /* \"#utility.yul\":878:879   */\n      0x00\n        /* \"#utility.yul\":875:876   */\n      dup1\n        /* \"#utility.yul\":868:880   */\n      revert\n        /* \"#utility.yul\":892:1009   */\n    tag_76:\n        /* \"#utility.yul\":1001:1002   */\n      0x00\n        /* \"#utility.yul\":998:999   */\n      dup1\n        /* \"#utility.yul\":991:1003   */\n      revert\n        /* \"#utility.yul\":1015:1117   */\n    tag_77:\n        /* \"#utility.yul\":1056:1062   */\n      0x00\n        /* \"#utility.yul\":1107:1109   */\n      0x1f\n        /* \"#utility.yul\":1103:1110   */\n      not\n        /* \"#utility.yul\":1098:1100   */\n      0x1f\n        /* \"#utility.yul\":1091:1096   */\n      dup4\n        /* \"#utility.yul\":1087:1101   */\n      add\n        /* \"#utility.yul\":1083:1111   */\n      and\n        /* \"#utility.yul\":1073:1111   */\n      swap1\n      pop\n        /* \"#utility.yul\":1015:1117   */\n      swap2\n      swap1\n      pop\n      jump\t// out\n        /* \"#utility.yul\":1123:1303   */\n    tag_78:\n        /* \"#utility.yul\":1171:1248   */\n      0x4e487b7100000000000000000000000000000000000000000000000000000000\n        /* \"#utility.yul\":1168:1169   */\n      0x00\n        /* \"#utility.yul\":1161:1249   */\n      mstore\n        /* \"#utility.yul\":1268:1272   */\n      0x41\n        /* \"#utility.yul\":1265:1266   */\n      0x04\n        /* \"#utility.yul\":1258:1273   */\n      mstore\n        /* \"#utility.yul\":1292:1296   */\n      0x24\n        /* \"#utility.yul\":1289:1290   */\n      0x00\n        /* \"#utility.yul\":1282:1297   */\n      revert\n        /* \"#utility.yul\":1309:1590   */\n    tag_79:\n        /* \"#utility.yul\":1392:1419   */\n      tag_136\n        /* \"#utility.yul\":1414:1418   */\n      dup3\n        /* \"#utility.yul\":1392:1419   */\n      tag_77\n      jump\t// in\n    tag_136:\n        /* \"#utility.yul\":1384:1390   */\n      dup2\n        /* \"#utility.yul\":1380:1420   */\n      add\n        /* \"#utility.yul\":1522:1528   */\n      dup2\n        /* \"#utility.yul\":1510:1520   */\n      dup2\n        /* \"#utility.yul\":1507:1529   */\n      lt\n        /* \"#utility.yul\":1486:1504   */\n      0xffffffffffffffff\n        /* \"#utility.yul\":1474:1484   */\n      dup3\n        /* \"#utility.yul\":1471:1505   */\n      gt\n        /* \"#utility.yul\":1468:1530   */\n      or\n        /* \"#utility.yul\":1465:1553   */\n      iszero\n      tag_137\n      jumpi\n        /* \"#utility.yul\":1533:1551   */\n      tag_138\n      tag_78\n      jump\t// in\n    tag_138:\n        /* \"#utility.yul\":1465:1553   */\n    tag_137:\n        /* \"#utility.yul\":1573:1583   */\n      dup1\n        /* \"#utility.yul\":1569:1571   */\n      0x40\n        /* \"#utility.yul\":1562:1584   */\n      mstore\n        /* \"#utility.yul\":1352:1590   */\n      pop\n        /* \"#utility.yul\":1309:1590   */\n      pop\n      pop\n      jump\t// out\n        /* \"#utility.yul\":1596:1725   */\n    tag_80:\n        /* \"#utility.yul\":1630:1636   */\n      0x00\n        /* \"#utility.yul\":1657:1677   */\n      tag_140\n      tag_72\n      jump\t// in\n    tag_140:\n        /* \"#utility.yul\":1647:1677   */\n      swap1\n      pop\n        /* \"#utility.yul\":1686:1719   */\n      tag_141\n        /* \"#utility.yul\":1714:1718   */\n      dup3\n        /* \"#utility.yul\":1706:1712   */\n      dup3\n        /* \"#utility.yul\":1686:1719   */\n      tag_79\n      jump\t// in\n    tag_141:\n        /* \"#utility.yul\":1596:1725   */\n      swap2\n      swap1\n      pop\n      jump\t// out\n        /* \"#utility.yul\":1731:2039   */\n    tag_81:\n        /* \"#utility.yul\":1793:1797   */\n      0x00\n        /* \"#utility.yul\":1883:1901   */\n      0xffffffffffffffff\n        /* \"#utility.yul\":1875:1881   */\n      dup3\n        /* \"#utility.yul\":1872:1902   */\n      gt\n        /* \"#utility.yul\":1869:1925   */\n      iszero\n      tag_143\n      jumpi\n        /* \"#utility.yul\":1905:1923   */\n      tag_144\n      tag_78\n      jump\t// in\n    tag_144:\n        /* \"#utility.yul\":1869:1925   */\n    tag_143:\n        /* \"#utility.yul\":1943:1972   */\n      tag_145\n        /* \"#utility.yul\":1965:1971   */\n      dup3\n        /* \"#utility.yul\":1943:1972   */\n      tag_77\n      jump\t// in\n    tag_145:\n        /* \"#utility.yul\":1935:1972   */\n      swap1\n      pop\n        /* \"#utility.yul\":2027:2031   */\n      0x20\n        /* \"#utility.yul\":2021:2025   */\n      dup2\n        /* \"#utility.yul\":2017:2032   */\n      add\n        /* \"#utility.yul\":2009:2032   */\n      swap1\n      pop\n        /* \"#utility.yul\":1731:2039   */\n      swap2\n      swap1\n      pop\n      jump\t// out\n        /* \"#utility.yul\":2045:2191   */\n    tag_82:\n        /* \"#utility.yul\":2142:2148   */\n      dup3\n        /* \"#utility.yul\":2137:2140   */\n      dup2\n        /* \"#utility.yul\":2132:2135   */\n      dup4\n        /* \"#utility.yul\":2119:2149   */\n      calldatacopy\n        /* \"#utility.yul\":2183:2184   */\n      0x00\n        /* \"#utility.yul\":2174:2180   */\n      dup4\n        /* \"#utility.yul\":2169:2172   */\n      dup4\n        /* \"#utility.yul\":2165:2181   */\n      add\n        /* \"#utility.yul\":2158:2185   */\n      mstore\n        /* \"#utility.yul\":2045:2191   */\n      pop\n      pop\n      pop\n      jump\t// out\n        /* \"#utility.yul\":2197:2622   */\n    tag_83:\n        /* \"#utility.yul\":2275:2280   */\n      0x00\n        /* \"#utility.yul\":2300:2366   */\n      tag_148\n        /* \"#utility.yul\":2316:2365   */\n      tag_149\n        /* \"#utility.yul\":2358:2364   */\n      dup5\n        /* \"#utility.yul\":2316:2365   */\n      tag_81\n      jump\t// in\n    tag_149:\n        /* \"#utility.yul\":2300:2366   */\n      tag_80\n      jump\t// in\n    tag_148:\n        /* \"#utility.yul\":2291:2366   */\n      swap1\n      pop\n        /* \"#utility.yul\":2389:2395   */\n      dup3\n        /* \"#utility.yul\":2382:2387   */\n      dup2\n        /* \"#utility.yul\":2375:2396   */\n      mstore\n        /* \"#utility.yul\":2427:2431   */\n      0x20\n        /* \"#utility.yul\":2420:2425   */\n      dup2\n        /* \"#utility.yul\":2416:2432   */\n      add\n        /* \"#utility.yul\":2465:2468   */\n      dup5\n        /* \"#utility.yul\":2456:2462   */\n      dup5\n        /* \"#utility.yul\":2451:2454   */\n      dup5\n        /* \"#utility.yul\":2447:2463   */\n      add\n        /* \"#utility.yul\":2444:2469   */\n      gt\n        /* \"#utility.yul\":2441:2553   */\n      iszero\n      tag_150\n      jumpi\n        /* \"#utility.yul\":2472:2551   */\n      tag_151\n      tag_76\n      jump\t// in\n    tag_151:\n        /* \"#utility.yul\":2441:2553   */\n    tag_150:\n        /* \"#utility.yul\":2562:2616   */\n      tag_152\n        /* \"#utility.yul\":2609:2615   */\n      dup5\n        /* \"#utility.yul\":2604:2607   */\n      dup3\n        /* \"#utility.yul\":2599:2602   */\n      dup6\n        /* \"#utility.yul\":2562:2616   */\n      tag_82\n      jump\t// in\n    tag_152:\n        /* \"#utility.yul\":2281:2622   */\n      pop\n        /* \"#utility.yul\":2197:2622   */\n      swap4\n      swap3\n      pop\n      pop\n      pop\n      jump\t// out\n        /* \"#utility.yul\":2642:2982   */\n    tag_84:\n        /* \"#utility.yul\":2698:2703   */\n      0x00\n        /* \"#utility.yul\":2747:2750   */\n      dup3\n        /* \"#utility.yul\":2740:2744   */\n      0x1f\n        /* \"#utility.yul\":2732:2738   */\n      dup4\n        /* \"#utility.yul\":2728:2745   */\n      add\n        /* \"#utility.yul\":2724:2751   */\n      slt\n        /* \"#utility.yul\":2714:2836   */\n      tag_154\n      jumpi\n        /* \"#utility.yul\":2755:2834   */\n      tag_155\n      tag_75\n      jump\t// in\n    tag_155:\n        /* \"#utility.yul\":2714:2836   */\n    tag_154:\n        /* \"#utility.yul\":2872:2878   */\n      dup2\n        /* \"#utility.yul\":2859:2879   */\n      calldataload\n        /* \"#utility.yul\":2897:2976   */\n      tag_156\n        /* \"#utility.yul\":2972:2975   */\n      dup5\n        /* \"#utility.yul\":2964:2970   */\n      dup3\n        /* \"#utility.yul\":2957:2961   */\n      0x20\n        /* \"#utility.yul\":2949:2955   */\n      dup7\n        /* \"#utility.yul\":2945:2962   */\n      add\n        /* \"#utility.yul\":2897:2976   */\n      tag_83\n      jump\t// in\n    tag_156:\n        /* \"#utility.yul\":2888:2976   */\n      swap2\n      pop\n        /* \"#utility.yul\":2704:2982   */\n      pop\n        /* \"#utility.yul\":2642:2982   */\n      swap3\n      swap2\n      pop\n      pop\n      jump\t// out\n        /* \"#utility.yul\":2988:3110   */\n    tag_85:\n        /* \"#utility.yul\":3061:3085   */\n      tag_158\n        /* \"#utility.yul\":3079:3084   */\n      dup2\n        /* \"#utility.yul\":3061:3085   */\n      tag_70\n      jump\t// in\n    tag_158:\n        /* \"#utility.yul\":3054:3059   */\n      dup2\n        /* \"#utility.yul\":3051:3086   */\n      eq\n        /* \"#utility.yul\":3041:3104   */\n      tag_159\n      jumpi\n        /* \"#utility.yul\":3100:3101   */\n      0x00\n        /* \"#utility.yul\":3097:3098   */\n      dup1\n        /* \"#utility.yul\":3090:3102   */\n      revert\n        /* \"#utility.yul\":3041:3104   */\n    tag_159:\n        /* \"#utility.yul\":2988:3110   */\n      pop\n      jump\t// out\n        /* \"#utility.yul\":3116:3255   */\n    tag_86:\n        /* \"#utility.yul\":3162:3167   */\n      0x00\n        /* \"#utility.yul\":3200:3206   */\n      dup2\n        /* \"#utility.yul\":3187:3207   */\n      calldataload\n        /* \"#utility.yul\":3178:3207   */\n      swap1\n      pop\n        /* \"#utility.yul\":3216:3249   */\n      tag_161\n        /* \"#utility.yul\":3243:3248   */\n      dup2\n        /* \"#utility.yul\":3216:3249   */\n      tag_85\n      jump\t// in\n    tag_161:\n        /* \"#utility.yul\":3116:3255   */\n      swap3\n      swap2\n      pop\n      pop\n      jump\t// out\n        /* \"#utility.yul\":3261:3915   */\n    tag_15:\n        /* \"#utility.yul\":3339:3345   */\n      0x00\n        /* \"#utility.yul\":3347:3353   */\n      dup1\n        /* \"#utility.yul\":3396:3398   */\n      0x40\n        /* \"#utility.yul\":3384:3393   */\n      dup4\n        /* \"#utility.yul\":3375:3382   */\n      dup6\n        /* \"#utility.yul\":3371:3394   */\n      sub\n        /* \"#utility.yul\":3367:3399   */\n      slt\n        /* \"#utility.yul\":3364:3483   */\n      iszero\n      tag_163\n      jumpi\n        /* \"#utility.yul\":3402:3481   */\n      tag_164\n      tag_73\n      jump\t// in\n    tag_164:\n        /* \"#utility.yul\":3364:3483   */\n    tag_163:\n        /* \"#utility.yul\":3550:3551   */\n      0x00\n        /* \"#utility.yul\":3539:3548   */\n      dup4\n        /* \"#utility.yul\":3535:3552   */\n      add\n        /* \"#utility.yul\":3522:3553   */\n      calldataload\n        /* \"#utility.yul\":3580:3598   */\n      0xffffffffffffffff\n        /* \"#utility.yul\":3572:3578   */\n      dup2\n        /* \"#utility.yul\":3569:3599   */\n      gt\n        /* \"#utility.yul\":3566:3683   */\n      iszero\n      tag_165\n      jumpi\n        /* \"#utility.yul\":3602:3681   */\n      tag_166\n      tag_74\n      jump\t// in\n    tag_166:\n        /* \"#utility.yul\":3566:3683   */\n    tag_165:\n        /* \"#utility.yul\":3707:3770   */\n      tag_167\n        /* \"#utility.yul\":3762:3769   */\n      dup6\n        /* \"#utility.yul\":3753:3759   */\n      dup3\n        /* \"#utility.yul\":3742:3751   */\n      dup7\n        /* \"#utility.yul\":3738:3760   */\n      add\n        /* \"#utility.yul\":3707:3770   */\n      tag_84\n      jump\t// in\n    tag_167:\n        /* \"#utility.yul\":3697:3770   */\n      swap3\n      pop\n        /* \"#utility.yul\":3493:3780   */\n      pop\n        /* \"#utility.yul\":3819:3821   */\n      0x20\n        /* \"#utility.yul\":3845:3898   */\n      tag_168\n        /* \"#utility.yul\":3890:3897   */\n      dup6\n        /* \"#utility.yul\":3881:3887   */\n      dup3\n        /* \"#utility.yul\":3870:3879   */\n      dup7\n        /* \"#utility.yul\":3866:3888   */\n      add\n        /* \"#utility.yul\":3845:3898   */\n      tag_86\n      jump\t// in\n    tag_168:\n        /* \"#utility.yul\":3835:3898   */\n      swap2\n      pop\n        /* \"#utility.yul\":3790:3908   */\n      pop\n        /* \"#utility.yul\":3261:3915   */\n      swap3\n      pop\n      swap3\n      swap1\n      pop\n      jump\t// out\n        /* \"#utility.yul\":3921:4250   */\n    tag_20:\n        /* \"#utility.yul\":3980:3986   */\n      0x00\n        /* \"#utility.yul\":4029:4031   */\n      0x20\n        /* \"#utility.yul\":4017:4026   */\n      dup3\n        /* \"#utility.yul\":4008:4015   */\n      dup5\n        /* \"#utility.yul\":4004:4027   */\n      sub\n        /* \"#utility.yul\":4000:4032   */\n      slt\n        /* \"#utility.yul\":3997:4116   */\n      iszero\n      tag_170\n      jumpi\n        /* \"#utility.yul\":4035:4114   */\n      tag_171\n      tag_73\n      jump\t// in\n    tag_171:\n        /* \"#utility.yul\":3997:4116   */\n    tag_170:\n        /* \"#utility.yul\":4155:4156   */\n      0x00\n        /* \"#utility.yul\":4180:4233   */\n      tag_172\n        /* \"#utility.yul\":4225:4232   */\n      dup5\n        /* \"#utility.yul\":4216:4222   */\n      dup3\n        /* \"#utility.yul\":4205:4214   */\n      dup6\n        /* \"#utility.yul\":4201:4223   */\n      add\n        /* \"#utility.yul\":4180:4233   */\n      tag_86\n      jump\t// in\n    tag_172:\n        /* \"#utility.yul\":4170:4233   */\n      swap2\n      pop\n        /* \"#utility.yul\":4126:4243   */\n      pop\n        /* \"#utility.yul\":3921:4250   */\n      swap3\n      swap2\n      pop\n      pop\n      jump\t// out\n        /* \"#utility.yul\":4256:4355   */\n    tag_87:\n        /* \"#utility.yul\":4308:4314   */\n      0x00\n        /* \"#utility.yul\":4342:4347   */\n      dup2\n        /* \"#utility.yul\":4336:4348   */\n      mload\n        /* \"#utility.yul\":4326:4348   */\n      swap1\n      pop\n        /* \"#utility.yul\":4256:4355   */\n      swap2\n      swap1\n      pop\n      jump\t// out\n        /* \"#utility.yul\":4361:4530   */\n    tag_88:\n        /* \"#utility.yul\":4445:4456   */\n      0x00\n        /* \"#utility.yul\":4479:4485   */\n      dup3\n        /* \"#utility.yul\":4474:4477   */\n      dup3\n        /* \"#utility.yul\":4467:4486   */\n      mstore\n        /* \"#utility.yul\":4519:4523   */\n      0x20\n        /* \"#utility.yul\":4514:4517   */\n      dup3\n        /* \"#utility.yul\":4510:4524   */\n      add\n        /* \"#utility.yul\":4495:4524   */\n      swap1\n      pop\n        /* \"#utility.yul\":4361:4530   */\n      swap3\n      swap2\n      pop\n      pop\n      jump\t// out\n        /* \"#utility.yul\":4536:4782   */\n    tag_89:\n        /* \"#utility.yul\":4617:4618   */\n      0x00\n        /* \"#utility.yul\":4627:4740   */\n    tag_176:\n        /* \"#utility.yul\":4641:4647   */\n      dup4\n        /* \"#utility.yul\":4638:4639   */\n      dup2\n        /* \"#utility.yul\":4635:4648   */\n      lt\n        /* \"#utility.yul\":4627:4740   */\n      iszero\n      tag_178\n      jumpi\n        /* \"#utility.yul\":4726:4727   */\n      dup1\n        /* \"#utility.yul\":4721:4724   */\n      dup3\n        /* \"#utility.yul\":4717:4728   */\n      add\n        /* \"#utility.yul\":4711:4729   */\n      mload\n        /* \"#utility.yul\":4707:4708   */\n      dup2\n        /* \"#utility.yul\":4702:4705   */\n      dup5\n        /* \"#utility.yul\":4698:4709   */\n      add\n        /* \"#utility.yul\":4691:4730   */\n      mstore\n        /* \"#utility.yul\":4663:4665   */\n      0x20\n        /* \"#utility.yul\":4660:4661   */\n      dup2\n        /* \"#utility.yul\":4656:4666   */\n      add\n        /* \"#utility.yul\":4651:4666   */\n      swap1\n      pop\n        /* \"#utility.yul\":4627:4740   */\n      jump(tag_176)\n    tag_178:\n        /* \"#utility.yul\":4774:4775   */\n      0x00\n        /* \"#utility.yul\":4765:4771   */\n      dup5\n        /* \"#utility.yul\":4760:4763   */\n      dup5\n        /* \"#utility.yul\":4756:4772   */\n      add\n        /* \"#utility.yul\":4749:4776   */\n      mstore\n        /* \"#utility.yul\":4598:4782   */\n      pop\n        /* \"#utility.yul\":4536:4782   */\n      pop\n      pop\n      pop\n      jump\t// out\n        /* \"#utility.yul\":4788:5165   */\n    tag_90:\n        /* \"#utility.yul\":4876:4879   */\n      0x00\n        /* \"#utility.yul\":4904:4943   */\n      tag_180\n        /* \"#utility.yul\":4937:4942   */\n      dup3\n        /* \"#utility.yul\":4904:4943   */\n      tag_87\n      jump\t// in\n    tag_180:\n        /* \"#utility.yul\":4959:5030   */\n      tag_181\n        /* \"#utility.yul\":5023:5029   */\n      dup2\n        /* \"#utility.yul\":5018:5021   */\n      dup6\n        /* \"#utility.yul\":4959:5030   */\n      tag_88\n      jump\t// in\n    tag_181:\n        /* \"#utility.yul\":4952:5030   */\n      swap4\n      pop\n        /* \"#utility.yul\":5039:5104   */\n      tag_182\n        /* \"#utility.yul\":5097:5103   */\n      dup2\n        /* \"#utility.yul\":5092:5095   */\n      dup6\n        /* \"#utility.yul\":5085:5089   */\n      0x20\n        /* \"#utility.yul\":5078:5083   */\n      dup7\n        /* \"#utility.yul\":5074:5090   */\n      add\n        /* \"#utility.yul\":5039:5104   */\n      tag_89\n      jump\t// in\n    tag_182:\n        /* \"#utility.yul\":5129:5158   */\n      tag_183\n        /* \"#utility.yul\":5151:5157   */\n      dup2\n        /* \"#utility.yul\":5129:5158   */\n      tag_77\n      jump\t// in\n    tag_183:\n        /* \"#utility.yul\":5124:5127   */\n      dup5\n        /* \"#utility.yul\":5120:5159   */\n      add\n        /* \"#utility.yul\":5113:5159   */\n      swap2\n      pop\n        /* \"#utility.yul\":4880:5165   */\n      pop\n        /* \"#utility.yul\":4788:5165   */\n      swap3\n      swap2\n      pop\n      pop\n      jump\t// out\n        /* \"#utility.yul\":5171:5297   */\n    tag_91:\n        /* \"#utility.yul\":5208:5215   */\n      0x00\n        /* \"#utility.yul\":5248:5290   */\n      0xffffffffffffffffffffffffffffffffffffffff\n        /* \"#utility.yul\":5241:5246   */\n      dup3\n        /* \"#utility.yul\":5237:5291   */\n      and\n        /* \"#utility.yul\":5226:5291   */\n      swap1\n      pop\n        /* \"#utility.yul\":5171:5297   */\n      swap2\n      swap1\n      pop\n      jump\t// out\n        /* \"#utility.yul\":5303:5399   */\n    tag_92:\n        /* \"#utility.yul\":5340:5347   */\n      0x00\n        /* \"#utility.yul\":5369:5393   */\n      tag_186\n        /* \"#utility.yul\":5387:5392   */\n      dup3\n        /* \"#utility.yul\":5369:5393   */\n      tag_91\n      jump\t// in\n    tag_186:\n        /* \"#utility.yul\":5358:5393   */\n      swap1\n      pop\n        /* \"#utility.yul\":5303:5399   */\n      swap2\n      swap1\n      pop\n      jump\t// out\n        /* \"#utility.yul\":5405:5523   */\n    tag_93:\n        /* \"#utility.yul\":5492:5516   */\n      tag_188\n        /* \"#utility.yul\":5510:5515   */\n      dup2\n        /* \"#utility.yul\":5492:5516   */\n      tag_92\n      jump\t// in\n    tag_188:\n        /* \"#utility.yul\":5487:5490   */\n      dup3\n        /* \"#utility.yul\":5480:5517   */\n      mstore\n        /* \"#utility.yul\":5405:5523   */\n      pop\n      pop\n      jump\t// out\n        /* \"#utility.yul\":5529:6173   */\n    tag_23:\n        /* \"#utility.yul\":5726:5730   */\n      0x00\n        /* \"#utility.yul\":5764:5767   */\n      0x80\n        /* \"#utility.yul\":5753:5762   */\n      dup3\n        /* \"#utility.yul\":5749:5768   */\n      add\n        /* \"#utility.yul\":5741:5768   */\n      swap1\n      pop\n        /* \"#utility.yul\":5814:5823   */\n      dup2\n        /* \"#utility.yul\":5808:5812   */\n      dup2\n        /* \"#utility.yul\":5804:5824   */\n      sub\n        /* \"#utility.yul\":5800:5801   */\n      0x00\n        /* \"#utility.yul\":5789:5798   */\n      dup4\n        /* \"#utility.yul\":5785:5802   */\n      add\n        /* \"#utility.yul\":5778:5825   */\n      mstore\n        /* \"#utility.yul\":5842:5920   */\n      tag_190\n        /* \"#utility.yul\":5915:5919   */\n      dup2\n        /* \"#utility.yul\":5906:5912   */\n      dup8\n        /* \"#utility.yul\":5842:5920   */\n      tag_90\n      jump\t// in\n    tag_190:\n        /* \"#utility.yul\":5834:5920   */\n      swap1\n      pop\n        /* \"#utility.yul\":5930:6002   */\n      tag_191\n        /* \"#utility.yul\":5998:6000   */\n      0x20\n        /* \"#utility.yul\":5987:5996   */\n      dup4\n        /* \"#utility.yul\":5983:6001   */\n      add\n        /* \"#utility.yul\":5974:5980   */\n      dup7\n        /* \"#utility.yul\":5930:6002   */\n      tag_71\n      jump\t// in\n    tag_191:\n        /* \"#utility.yul\":6012:6084   */\n      tag_192\n        /* \"#utility.yul\":6080:6082   */\n      0x40\n        /* \"#utility.yul\":6069:6078   */\n      dup4\n        /* \"#utility.yul\":6065:6083   */\n      add\n        /* \"#utility.yul\":6056:6062   */\n      dup6\n        /* \"#utility.yul\":6012:6084   */\n      tag_93\n      jump\t// in\n    tag_192:\n        /* \"#utility.yul\":6094:6166   */\n      tag_193\n        /* \"#utility.yul\":6162:6164   */\n      0x60\n        /* \"#utility.yul\":6151:6160   */\n      dup4\n        /* \"#utility.yul\":6147:6165   */\n      add\n        /* \"#utility.yul\":6138:6144   */\n      dup5\n        /* \"#utility.yul\":6094:6166   */\n      tag_93\n      jump\t// in\n    tag_193:\n        /* \"#utility.yul\":5529:6173   */\n      swap6\n      swap5\n      pop\n      pop\n      pop\n      pop\n      pop\n      jump\t// out\n        /* \"#utility.yul\":6179:6283   */\n    tag_94:\n        /* \"#utility.yul\":6224:6231   */\n      0x00\n        /* \"#utility.yul\":6253:6277   */\n      tag_195\n        /* \"#utility.yul\":6271:6276   */\n      dup3\n        /* \"#utility.yul\":6253:6277   */\n      tag_91\n      jump\t// in\n    tag_195:\n        /* \"#utility.yul\":6242:6277   */\n      swap1\n      pop\n        /* \"#utility.yul\":6179:6283   */\n      swap2\n      swap1\n      pop\n      jump\t// out\n        /* \"#utility.yul\":6289:6427   */\n    tag_95:\n        /* \"#utility.yul\":6370:6402   */\n      tag_197\n        /* \"#utility.yul\":6396:6401   */\n      dup2\n        /* \"#utility.yul\":6370:6402   */\n      tag_94\n      jump\t// in\n    tag_197:\n        /* \"#utility.yul\":6363:6368   */\n      dup2\n        /* \"#utility.yul\":6360:6403   */\n      eq\n        /* \"#utility.yul\":6350:6421   */\n      tag_198\n      jumpi\n        /* \"#utility.yul\":6417:6418   */\n      0x00\n        /* \"#utility.yul\":6414:6415   */\n      dup1\n        /* \"#utility.yul\":6407:6419   */\n      revert\n        /* \"#utility.yul\":6350:6421   */\n    tag_198:\n        /* \"#utility.yul\":6289:6427   */\n      pop\n      jump\t// out\n        /* \"#utility.yul\":6433:6588   */\n    tag_96:\n        /* \"#utility.yul\":6487:6492   */\n      0x00\n        /* \"#utility.yul\":6525:6531   */\n      dup2\n        /* \"#utility.yul\":6512:6532   */\n      calldataload\n        /* \"#utility.yul\":6503:6532   */\n      swap1\n      pop\n        /* \"#utility.yul\":6541:6582   */\n      tag_200\n        /* \"#utility.yul\":6576:6581   */\n      dup2\n        /* \"#utility.yul\":6541:6582   */\n      tag_95\n      jump\t// in\n    tag_200:\n        /* \"#utility.yul\":6433:6588   */\n      swap3\n      swap2\n      pop\n      pop\n      jump\t// out\n        /* \"#utility.yul\":6594:7084   */\n    tag_30:\n        /* \"#utility.yul\":6670:6676   */\n      0x00\n        /* \"#utility.yul\":6678:6684   */\n      dup1\n        /* \"#utility.yul\":6727:6729   */\n      0x40\n        /* \"#utility.yul\":6715:6724   */\n      dup4\n        /* \"#utility.yul\":6706:6713   */\n      dup6\n        /* \"#utility.yul\":6702:6725   */\n      sub\n        /* \"#utility.yul\":6698:6730   */\n      slt\n        /* \"#utility.yul\":6695:6814   */\n      iszero\n      tag_202\n      jumpi\n        /* \"#utility.yul\":6733:6812   */\n      tag_203\n      tag_73\n      jump\t// in\n    tag_203:\n        /* \"#utility.yul\":6695:6814   */\n    tag_202:\n        /* \"#utility.yul\":6853:6854   */\n      0x00\n        /* \"#utility.yul\":6878:6931   */\n      tag_204\n        /* \"#utility.yul\":6923:6930   */\n      dup6\n        /* \"#utility.yul\":6914:6920   */\n      dup3\n        /* \"#utility.yul\":6903:6912   */\n      dup7\n        /* \"#utility.yul\":6899:6921   */\n      add\n        /* \"#utility.yul\":6878:6931   */\n      tag_86\n      jump\t// in\n    tag_204:\n        /* \"#utility.yul\":6868:6931   */\n      swap3\n      pop\n        /* \"#utility.yul\":6824:6941   */\n      pop\n        /* \"#utility.yul\":6980:6982   */\n      0x20\n        /* \"#utility.yul\":7006:7067   */\n      tag_205\n        /* \"#utility.yul\":7059:7066   */\n      dup6\n        /* \"#utility.yul\":7050:7056   */\n      dup3\n        /* \"#utility.yul\":7039:7048   */\n      dup7\n        /* \"#utility.yul\":7035:7057   */\n      add\n        /* \"#utility.yul\":7006:7067   */\n      tag_96\n      jump\t// in\n    tag_205:\n        /* \"#utility.yul\":6996:7067   */\n      swap2\n      pop\n        /* \"#utility.yul\":6951:7077   */\n      pop\n        /* \"#utility.yul\":6594:7084   */\n      swap3\n      pop\n      swap3\n      swap1\n      pop\n      jump\t// out\n        /* \"#utility.yul\":7090:7255   */\n    tag_97:\n        /* \"#utility.yul\":7230:7247   */\n      0x496e76616c696420616464726573730000000000000000000000000000000000\n        /* \"#utility.yul\":7226:7227   */\n      0x00\n        /* \"#utility.yul\":7218:7224   */\n      dup3\n        /* \"#utility.yul\":7214:7228   */\n      add\n        /* \"#utility.yul\":7207:7248   */\n      mstore\n        /* \"#utility.yul\":7090:7255   */\n      pop\n      jump\t// out\n        /* \"#utility.yul\":7261:7627   */\n    tag_98:\n        /* \"#utility.yul\":7403:7406   */\n      0x00\n        /* \"#utility.yul\":7424:7491   */\n      tag_208\n        /* \"#utility.yul\":7488:7490   */\n      0x0f\n        /* \"#utility.yul\":7483:7486   */\n      dup4\n        /* \"#utility.yul\":7424:7491   */\n      tag_88\n      jump\t// in\n    tag_208:\n        /* \"#utility.yul\":7417:7491   */\n      swap2\n      pop\n        /* \"#utility.yul\":7500:7593   */\n      tag_209\n        /* \"#utility.yul\":7589:7592   */\n      dup3\n        /* \"#utility.yul\":7500:7593   */\n      tag_97\n      jump\t// in\n    tag_209:\n        /* \"#utility.yul\":7618:7620   */\n      0x20\n        /* \"#utility.yul\":7613:7616   */\n      dup3\n        /* \"#utility.yul\":7609:7621   */\n      add\n        /* \"#utility.yul\":7602:7621   */\n      swap1\n      pop\n        /* \"#utility.yul\":7261:7627   */\n      swap2\n      swap1\n      pop\n      jump\t// out\n        /* \"#utility.yul\":7633:8052   */\n    tag_35:\n        /* \"#utility.yul\":7799:7803   */\n      0x00\n        /* \"#utility.yul\":7837:7839   */\n      0x20\n        /* \"#utility.yul\":7826:7835   */\n      dup3\n        /* \"#utility.yul\":7822:7840   */\n      add\n        /* \"#utility.yul\":7814:7840   */\n      swap1\n      pop\n        /* \"#utility.yul\":7886:7895   */\n      dup2\n        /* \"#utility.yul\":7880:7884   */\n      dup2\n        /* \"#utility.yul\":7876:7896   */\n      sub\n        /* \"#utility.yul\":7872:7873   */\n      0x00\n        /* \"#utility.yul\":7861:7870   */\n      dup4\n        /* \"#utility.yul\":7857:7874   */\n      add\n        /* \"#utility.yul\":7850:7897   */\n      mstore\n        /* \"#utility.yul\":7914:8045   */\n      tag_211\n        /* \"#utility.yul\":8040:8044   */\n      dup2\n        /* \"#utility.yul\":7914:8045   */\n      tag_98\n      jump\t// in\n    tag_211:\n        /* \"#utility.yul\":7906:8045   */\n      swap1\n      pop\n        /* \"#utility.yul\":7633:8052   */\n      swap2\n      swap1\n      pop\n      jump\t// out\n        /* \"#utility.yul\":8058:8238   */\n    tag_99:\n        /* \"#utility.yul\":8106:8183   */\n      0x4e487b7100000000000000000000000000000000000000000000000000000000\n        /* \"#utility.yul\":8103:8104   */\n      0x00\n        /* \"#utility.yul\":8096:8184   */\n      mstore\n        /* \"#utility.yul\":8203:8207   */\n      0x11\n        /* \"#utility.yul\":8200:8201   */\n      0x04\n        /* \"#utility.yul\":8193:8208   */\n      mstore\n        /* \"#utility.yul\":8227:8231   */\n      0x24\n        /* \"#utility.yul\":8224:8225   */\n      0x00\n        /* \"#utility.yul\":8217:8232   */\n      revert\n        /* \"#utility.yul\":8244:8477   */\n    tag_37:\n        /* \"#utility.yul\":8283:8286   */\n      0x00\n        /* \"#utility.yul\":8306:8330   */\n      tag_214\n        /* \"#utility.yul\":8324:8329   */\n      dup3\n        /* \"#utility.yul\":8306:8330   */\n      tag_70\n      jump\t// in\n    tag_214:\n        /* \"#utility.yul\":8297:8330   */\n      swap2\n      pop\n        /* \"#utility.yul\":8352:8418   */\n      0xffffffffffffffffffffffffffffffffffffffffffffffffffffffffffffffff\n        /* \"#utility.yul\":8345:8350   */\n      dup3\n        /* \"#utility.yul\":8342:8419   */\n      sub\n        /* \"#utility.yul\":8339:8442   */\n      tag_215\n      jumpi\n        /* \"#utility.yul\":8422:8440   */\n      tag_216\n      tag_99\n      jump\t// in\n    tag_216:\n        /* \"#utility.yul\":8339:8442   */\n    tag_215:\n        /* \"#utility.yul\":8469:8470   */\n      0x01\n        /* \"#utility.yul\":8462:8467   */\n      dup3\n        /* \"#utility.yul\":8458:8471   */\n      add\n        /* \"#utility.yul\":8451:8471   */\n      swap1\n      pop\n        /* \"#utility.yul\":8244:8477   */\n      swap2\n      swap1\n      pop\n      jump\t// out\n        /* \"#utility.yul\":8483:8663   */\n    tag_100:\n        /* \"#utility.yul\":8531:8608   */\n      0x4e487b7100000000000000000000000000000000000000000000000000000000\n        /* \"#utility.yul\":8528:8529   */\n      0x00\n        /* \"#utility.yul\":8521:8609   */\n      mstore\n        /* \"#utility.yul\":8628:8632   */\n      0x22\n        /* \"#utility.yul\":8625:8626   */\n      0x04\n        /* \"#utility.yul\":8618:8633   */\n      mstore\n        /* \"#utility.yul\":8652:8656   */\n      0x24\n        /* \"#utility.yul\":8649:8650   */\n      0x00\n        /* \"#utility.yul\":8642:8657   */\n      revert\n        /* \"#utility.yul\":8669:8989   */\n    tag_46:\n        /* \"#utility.yul\":8713:8719   */\n      0x00\n        /* \"#utility.yul\":8750:8751   */\n      0x02\n        /* \"#utility.yul\":8744:8748   */\n      dup3\n        /* \"#utility.yul\":8740:8752   */\n      div\n        /* \"#utility.yul\":8730:8752   */\n      swap1\n      pop\n        /* \"#utility.yul\":8797:8798   */\n      0x01\n        /* \"#utility.yul\":8791:8795   */\n      dup3\n        /* \"#utility.yul\":8787:8799   */\n      and\n        /* \"#utility.yul\":8818:8836   */\n      dup1\n        /* \"#utility.yul\":8808:8889   */\n      tag_219\n      jumpi\n        /* \"#utility.yul\":8874:8878   */\n      0x7f\n        /* \"#utility.yul\":8866:8872   */\n      dup3\n        /* \"#utility.yul\":8862:8879   */\n      and\n        /* \"#utility.yul\":8852:8879   */\n      swap2\n      pop\n        /* \"#utility.yul\":8808:8889   */\n    tag_219:\n        /* \"#utility.yul\":8936:8938   */\n      0x20\n        /* \"#utility.yul\":8928:8934   */\n      dup3\n        /* \"#utility.yul\":8925:8939   */\n      lt\n        /* \"#utility.yul\":8905:8923   */\n      dup2\n        /* \"#utility.yul\":8902:8940   */\n      sub\n        /* \"#utility.yul\":8899:8983   */\n      tag_220\n      jumpi\n        /* \"#utility.yul\":8955:8973   */\n      tag_221\n      tag_100\n      jump\t// in\n    tag_221:\n        /* \"#utility.yul\":8899:8983   */\n    tag_220:\n        /* \"#utility.yul\":8720:8989   */\n      pop\n        /* \"#utility.yul\":8669:8989   */\n      swap2\n      swap1\n      pop\n      jump\t// out\n        /* \"#utility.yul\":8995:9136   */\n    tag_101:\n        /* \"#utility.yul\":9044:9048   */\n      0x00\n        /* \"#utility.yul\":9067:9070   */\n      dup2\n        /* \"#utility.yul\":9059:9070   */\n      swap1\n      pop\n        /* \"#utility.yul\":9090:9093   */\n      dup2\n        /* \"#utility.yul\":9087:9088   */\n      0x00\n        /* \"#utility.yul\":9080:9094   */\n      mstore\n        /* \"#utility.yul\":9124:9128   */\n      0x20\n        /* \"#utility.yul\":9121:9122   */\n      0x00\n        /* \"#utility.yul\":9111:9129   */\n      keccak256\n        /* \"#utility.yul\":9103:9129   */\n      swap1\n      pop\n        /* \"#utility.yul\":8995:9136   */\n      swap2\n      swap1\n      pop\n      jump\t// out\n        /* \"#utility.yul\":9142:9235   */\n    tag_102:\n        /* \"#utility.yul\":9179:9185   */\n      0x00\n        /* \"#utility.yul\":9226:9228   */\n      0x20\n        /* \"#utility.yul\":9221:9223   */\n      0x1f\n        /* \"#utility.yul\":9214:9219   */\n      dup4\n        /* \"#utility.yul\":9210:9224   */\n      add\n        /* \"#utility.yul\":9206:9229   */\n      div\n        /* \"#utility.yul\":9196:9229   */\n      swap1\n      pop\n        /* \"#utility.yul\":9142:9235   */\n      swap2\n      swap1\n      pop\n      jump\t// out\n        /* \"#utility.yul\":9241:9348   */\n    tag_103:\n        /* \"#utility.yul\":9285:9293   */\n      0x00\n        /* \"#utility.yul\":9335:9340   */\n      dup3\n        /* \"#utility.yul\":9329:9333   */\n      dup3\n        /* \"#utility.yul\":9325:9341   */\n      shl\n        /* \"#utility.yul\":9304:9341   */\n      swap1\n      pop\n        /* \"#utility.yul\":9241:9348   */\n      swap3\n      swap2\n      pop\n      pop\n      jump\t// out\n        /* \"#utility.yul\":9354:9747   */\n    tag_104:\n        /* \"#utility.yul\":9423:9429   */\n      0x00\n        /* \"#utility.yul\":9473:9474   */\n      0x08\n        /* \"#utility.yul\":9461:9471   */\n      dup4\n        /* \"#utility.yul\":9457:9475   */\n      mul\n        /* \"#utility.yul\":9496:9593   */\n      tag_226\n        /* \"#utility.yul\":9526:9592   */\n      0xffffffffffffffffffffffffffffffffffffffffffffffffffffffffffffffff\n        /* \"#utility.yul\":9515:9524   */\n      dup3\n        /* \"#utility.yul\":9496:9593   */\n      tag_103\n      jump\t// in\n    tag_226:\n        /* \"#utility.yul\":9614:9653   */\n      tag_227\n        /* \"#utility.yul\":9644:9652   */\n      dup7\n        /* \"#utility.yul\":9633:9642   */\n      dup4\n        /* \"#utility.yul\":9614:9653   */\n      tag_103\n      jump\t// in\n    tag_227:\n        /* \"#utility.yul\":9602:9653   */\n      swap6\n      pop\n        /* \"#utility.yul\":9686:9690   */\n      dup1\n        /* \"#utility.yul\":9682:9691   */\n      not\n        /* \"#utility.yul\":9675:9680   */\n      dup5\n        /* \"#utility.yul\":9671:9692   */\n      and\n        /* \"#utility.yul\":9662:9692   */\n      swap4\n      pop\n        /* \"#utility.yul\":9735:9739   */\n      dup1\n        /* \"#utility.yul\":9725:9733   */\n      dup7\n        /* \"#utility.yul\":9721:9740   */\n      and\n        /* \"#utility.yul\":9714:9719   */\n      dup5\n        /* \"#utility.yul\":9711:9741   */\n      or\n        /* \"#utility.yul\":9701:9741   */\n      swap3\n      pop\n        /* \"#utility.yul\":9430:9747   */\n      pop\n      pop\n        /* \"#utility.yul\":9354:9747   */\n      swap4\n      swap3\n      pop\n      pop\n      pop\n      jump\t// out\n        /* \"#utility.yul\":9753:9813   */\n    tag_105:\n        /* \"#utility.yul\":9781:9784   */\n      0x00\n        /* \"#utility.yul\":9802:9807   */\n      dup2\n        /* \"#utility.yul\":9795:9807   */\n      swap1\n      pop\n        /* \"#utility.yul\":9753:9813   */\n      swap2\n      swap1\n      pop\n      jump\t// out\n        /* \"#utility.yul\":9819:9961   */\n    tag_106:\n        /* \"#utility.yul\":9869:9878   */\n      0x00\n        /* \"#utility.yul\":9902:9955   */\n      tag_230\n        /* \"#utility.yul\":9920:9954   */\n      tag_231\n        /* \"#utility.yul\":9929:9953   */\n      tag_232\n        /* \"#utility.yul\":9947:9952   */\n      dup5\n        /* \"#utility.yul\":9929:9953   */\n      tag_70\n      jump\t// in\n    tag_232:\n        /* \"#utility.yul\":9920:9954   */\n      tag_105\n      jump\t// in\n    tag_231:\n        /* \"#utility.yul\":9902:9955   */\n      tag_70\n      jump\t// in\n    tag_230:\n        /* \"#utility.yul\":9889:9955   */\n      swap1\n      pop\n        /* \"#utility.yul\":9819:9961   */\n      swap2\n      swap1\n      pop\n      jump\t// out\n        /* \"#utility.yul\":9967:10042   */\n    tag_107:\n        /* \"#utility.yul\":10010:10013   */\n      0x00\n        /* \"#utility.yul\":10031:10036   */\n      dup2\n        /* \"#utility.yul\":10024:10036   */\n      swap1\n      pop\n        /* \"#utility.yul\":9967:10042   */\n      swap2\n      swap1\n      pop\n      jump\t// out\n        /* \"#utility.yul\":10048:10317   */\n    tag_108:\n        /* \"#utility.yul\":10158:10197   */\n      tag_235\n        /* \"#utility.yul\":10189:10196   */\n      dup4\n        /* \"#utility.yul\":10158:10197   */\n      tag_106\n      jump\t// in\n    tag_235:\n        /* \"#utility.yul\":10219:10310   */\n      tag_236\n        /* \"#utility.yul\":10268:10309   */\n      tag_237\n        /* \"#utility.yul\":10292:10308   */\n      dup3\n        /* \"#utility.yul\":10268:10309   */\n      tag_107\n      jump\t// in\n    tag_237:\n        /* \"#utility.yul\":10260:10266   */\n      dup5\n        /* \"#utility.yul\":10253:10257   */\n      dup5\n        /* \"#utility.yul\":10247:10258   */\n      sload\n        /* \"#utility.yul\":10219:10310   */\n      tag_104\n      jump\t// in\n    tag_236:\n        /* \"#utility.yul\":10213:10217   */\n      dup3\n        /* \"#utility.yul\":10206:10311   */\n      sstore\n        /* \"#utility.yul\":10124:10317   */\n      pop\n        /* \"#utility.yul\":10048:10317   */\n      pop\n      pop\n      pop\n      jump\t// out\n        /* \"#utility.yul\":10323:10396   */\n    tag_109:\n        /* \"#utility.yul\":10368:10371   */\n      0x00\n        /* \"#utility.yul\":10323:10396   */\n      swap1\n      jump\t// out\n        /* \"#utility.yul\":10402:10591   */\n    tag_110:\n        /* \"#utility.yul\":10479:10511   */\n      tag_240\n      tag_109\n      jump\t// in\n    tag_240:\n        /* \"#utility.yul\":10520:10585   */\n      tag_241\n        /* \"#utility.yul\":10578:10584   */\n      dup2\n        /* \"#utility.yul\":10570:10576   */\n      dup5\n        /* \"#utility.yul\":10564:10568   */\n      dup5\n        /* \"#utility.yul\":10520:10585   */\n      tag_108\n      jump\t// in\n    tag_241:\n        /* \"#utility.yul\":10455:10591   */\n      pop\n        /* \"#utility.yul\":10402:10591   */\n      pop\n      pop\n      jump\t// out\n        /* \"#utility.yul\":10597:10783   */\n    tag_111:\n        /* \"#utility.yul\":10657:10777   */\n    tag_243:\n        /* \"#utility.yul\":10674:10677   */\n      dup2\n        /* \"#utility.yul\":10667:10672   */\n      dup2\n        /* \"#utility.yul\":10664:10678   */\n      lt\n        /* \"#utility.yul\":10657:10777   */\n      iszero\n      tag_245\n      jumpi\n        /* \"#utility.yul\":10728:10767   */\n      tag_246\n        /* \"#utility.yul\":10765:10766   */\n      0x00\n        /* \"#utility.yul\":10758:10763   */\n      dup3\n        /* \"#utility.yul\":10728:10767   */\n      tag_110\n      jump\t// in\n    tag_246:\n        /* \"#utility.yul\":10701:10702   */\n      0x01\n        /* \"#utility.yul\":10694:10699   */\n      dup2\n        /* \"#utility.yul\":10690:10703   */\n      add\n        /* \"#utility.yul\":10681:10703   */\n      swap1\n      pop\n        /* \"#utility.yul\":10657:10777   */\n      jump(tag_243)\n    tag_245:\n        /* \"#utility.yul\":10597:10783   */\n      pop\n      pop\n      jump\t// out\n        /* \"#utility.yul\":10789:11332   */\n    tag_112:\n        /* \"#utility.yul\":10890:10892   */\n      0x1f\n        /* \"#utility.yul\":10885:10888   */\n      dup3\n        /* \"#utility.yul\":10882:10893   */\n      gt\n        /* \"#utility.yul\":10879:11325   */\n      iszero\n      tag_248\n      jumpi\n        /* \"#utility.yul\":10924:10962   */\n      tag_249\n        /* \"#utility.yul\":10956:10961   */\n      dup2\n        /* \"#utility.yul\":10924:10962   */\n      tag_101\n      jump\t// in\n    tag_249:\n        /* \"#utility.yul\":11008:11037   */\n      tag_250\n        /* \"#utility.yul\":11026:11036   */\n      dup5\n        /* \"#utility.yul\":11008:11037   */\n      tag_102\n      jump\t// in\n    tag_250:\n        /* \"#utility.yul\":10998:11006   */\n      dup2\n        /* \"#utility.yul\":10994:11038   */\n      add\n        /* \"#utility.yul\":11191:11193   */\n      0x20\n        /* \"#utility.yul\":11179:11189   */\n      dup6\n        /* \"#utility.yul\":11176:11194   */\n      lt\n        /* \"#utility.yul\":11173:11222   */\n      iszero\n      tag_251\n      jumpi\n        /* \"#utility.yul\":11212:11220   */\n      dup2\n        /* \"#utility.yul\":11197:11220   */\n      swap1\n      pop\n        /* \"#utility.yul\":11173:11222   */\n    tag_251:\n        /* \"#utility.yul\":11235:11315   */\n      tag_252\n        /* \"#utility.yul\":11291:11313   */\n      tag_253\n        /* \"#utility.yul\":11309:11312   */\n      dup6\n        /* \"#utility.yul\":11291:11313   */\n      tag_102\n      jump\t// in\n    tag_253:\n        /* \"#utility.yul\":11281:11289   */\n      dup4\n        /* \"#utility.yul\":11277:11314   */\n      add\n        /* \"#utility.yul\":11264:11275   */\n      dup3\n        /* \"#utility.yul\":11235:11315   */\n      tag_111\n      jump\t// in\n    tag_252:\n        /* \"#utility.yul\":10894:11325   */\n      pop\n      pop\n        /* \"#utility.yul\":10879:11325   */\n    tag_248:\n        /* \"#utility.yul\":10789:11332   */\n      pop\n      pop\n      pop\n      jump\t// out\n        /* \"#utility.yul\":11338:11455   */\n    tag_113:\n        /* \"#utility.yul\":11392:11400   */\n      0x00\n        /* \"#utility.yul\":11442:11447   */\n      dup3\n        /* \"#utility.yul\":11436:11440   */\n      dup3\n        /* \"#utility.yul\":11432:11448   */\n      shr\n        /* \"#utility.yul\":11411:11448   */\n      swap1\n      pop\n        /* \"#utility.yul\":11338:11455   */\n      swap3\n      swap2\n      pop\n      pop\n      jump\t// out\n        /* \"#utility.yul\":11461:11630   */\n    tag_114:\n        /* \"#utility.yul\":11505:11511   */\n      0x00\n        /* \"#utility.yul\":11538:11589   */\n      tag_256\n        /* \"#utility.yul\":11586:11587   */\n      0x00\n        /* \"#utility.yul\":11582:11588   */\n      not\n        /* \"#utility.yul\":11574:11579   */\n      dup5\n        /* \"#utility.yul\":11571:11572   */\n      0x08\n        /* \"#utility.yul\":11567:11580   */\n      mul\n        /* \"#utility.yul\":11538:11589   */\n      tag_113\n      jump\t// in\n    tag_256:\n        /* \"#utility.yul\":11534:11590   */\n      not\n        /* \"#utility.yul\":11619:11623   */\n      dup1\n        /* \"#utility.yul\":11613:11617   */\n      dup4\n        /* \"#utility.yul\":11609:11624   */\n      and\n        /* \"#utility.yul\":11599:11624   */\n      swap2\n      pop\n        /* \"#utility.yul\":11512:11630   */\n      pop\n        /* \"#utility.yul\":11461:11630   */\n      swap3\n      swap2\n      pop\n      pop\n      jump\t// out\n        /* \"#utility.yul\":11635:11930   */\n    tag_115:\n        /* \"#utility.yul\":11711:11715   */\n      0x00\n        /* \"#utility.yul\":11857:11886   */\n      tag_258\n        /* \"#utility.yul\":11882:11885   */\n      dup4\n        /* \"#utility.yul\":11876:11880   */\n      dup4\n        /* \"#utility.yul\":11857:11886   */\n      tag_114\n      jump\t// in\n    tag_258:\n        /* \"#utility.yul\":11849:11886   */\n      swap2\n      pop\n        /* \"#utility.yul\":11919:11922   */\n      dup3\n        /* \"#utility.yul\":11916:11917   */\n      0x02\n        /* \"#utility.yul\":11912:11923   */\n      mul\n        /* \"#utility.yul\":11906:11910   */\n      dup3\n        /* \"#utility.yul\":11903:11924   */\n      or\n        /* \"#utility.yul\":11895:11924   */\n      swap1\n      pop\n        /* \"#utility.yul\":11635:11930   */\n      swap3\n      swap2\n      pop\n      pop\n      jump\t// out\n        /* \"#utility.yul\":11935:13330   */\n    tag_39:\n        /* \"#utility.yul\":12052:12089   */\n      tag_260\n        /* \"#utility.yul\":12085:12088   */\n      dup3\n        /* \"#utility.yul\":12052:12089   */\n      tag_87\n      jump\t// in\n    tag_260:\n        /* \"#utility.yul\":12154:12172   */\n      0xffffffffffffffff\n        /* \"#utility.yul\":12146:12152   */\n      dup2\n        /* \"#utility.yul\":12143:12173   */\n      gt\n        /* \"#utility.yul\":12140:12196   */\n      iszero\n      tag_261\n      jumpi\n        /* \"#utility.yul\":12176:12194   */\n      tag_262\n      tag_78\n      jump\t// in\n    tag_262:\n        /* \"#utility.yul\":12140:12196   */\n    tag_261:\n        /* \"#utility.yul\":12220:12258   */\n      tag_263\n        /* \"#utility.yul\":12252:12256   */\n      dup3\n        /* \"#utility.yul\":12246:12257   */\n      sload\n        /* \"#utility.yul\":12220:12258   */\n      tag_46\n      jump\t// in\n    tag_263:\n        /* \"#utility.yul\":12305:12372   */\n      tag_264\n        /* \"#utility.yul\":12365:12371   */\n      dup3\n        /* \"#utility.yul\":12357:12363   */\n      dup3\n        /* \"#utility.yul\":12351:12355   */\n      dup6\n        /* \"#utility.yul\":12305:12372   */\n      tag_112\n      jump\t// in\n    tag_264:\n        /* \"#utility.yul\":12399:12400   */\n      0x00\n        /* \"#utility.yul\":12423:12427   */\n      0x20\n        /* \"#utility.yul\":12410:12427   */\n      swap1\n      pop\n        /* \"#utility.yul\":12455:12457   */\n      0x1f\n        /* \"#utility.yul\":12447:12453   */\n      dup4\n        /* \"#utility.yul\":12444:12458   */\n      gt\n        /* \"#utility.yul\":12472:12473   */\n      0x01\n        /* \"#utility.yul\":12467:13085   */\n      dup2\n      eq\n      tag_266\n      jumpi\n        /* \"#utility.yul\":13129:13130   */\n      0x00\n        /* \"#utility.yul\":13146:13152   */\n      dup5\n        /* \"#utility.yul\":13143:13220   */\n      iszero\n      tag_267\n      jumpi\n        /* \"#utility.yul\":13195:13204   */\n      dup3\n        /* \"#utility.yul\":13190:13193   */\n      dup8\n        /* \"#utility.yul\":13186:13205   */\n      add\n        /* \"#utility.yul\":13180:13206   */\n      mload\n        /* \"#utility.yul\":13171:13206   */\n      swap1\n      pop\n        /* \"#utility.yul\":13143:13220   */\n    tag_267:\n        /* \"#utility.yul\":13246:13313   */\n      tag_268\n        /* \"#utility.yul\":13306:13312   */\n      dup6\n        /* \"#utility.yul\":13299:13304   */\n      dup3\n        /* \"#utility.yul\":13246:13313   */\n      tag_115\n      jump\t// in\n    tag_268:\n        /* \"#utility.yul\":13240:13244   */\n      dup7\n        /* \"#utility.yul\":13233:13314   */\n      sstore\n        /* \"#utility.yul\":13102:13324   */\n      pop\n        /* \"#utility.yul\":12437:13324   */\n      jump(tag_265)\n        /* \"#utility.yul\":12467:13085   */\n    tag_266:\n        /* \"#utility.yul\":12519:12523   */\n      0x1f\n        /* \"#utility.yul\":12515:12524   */\n      not\n        /* \"#utility.yul\":12507:12513   */\n      dup5\n        /* \"#utility.yul\":12503:12525   */\n      and\n        /* \"#utility.yul\":12553:12590   */\n      tag_269\n        /* \"#utility.yul\":12585:12589   */\n      dup7\n        /* \"#utility.yul\":12553:12590   */\n      tag_101\n      jump\t// in\n    tag_269:\n        /* \"#utility.yul\":12612:12613   */\n      0x00\n        /* \"#utility.yul\":12626:12834   */\n    tag_270:\n        /* \"#utility.yul\":12640:12647   */\n      dup3\n        /* \"#utility.yul\":12637:12638   */\n      dup2\n        /* \"#utility.yul\":12634:12648   */\n      lt\n        /* \"#utility.yul\":12626:12834   */\n      iszero\n      tag_272\n      jumpi\n        /* \"#utility.yul\":12719:12728   */\n      dup5\n        /* \"#utility.yul\":12714:12717   */\n      dup10\n        /* \"#utility.yul\":12710:12729   */\n      add\n        /* \"#utility.yul\":12704:12730   */\n      mload\n        /* \"#utility.yul\":12696:12702   */\n      dup3\n        /* \"#utility.yul\":12689:12731   */\n      sstore\n        /* \"#utility.yul\":12770:12771   */\n      0x01\n        /* \"#utility.yul\":12762:12768   */\n      dup3\n        /* \"#utility.yul\":12758:12772   */\n      add\n        /* \"#utility.yul\":12748:12772   */\n      swap2\n      pop\n        /* \"#utility.yul\":12817:12819   */\n      0x20\n        /* \"#utility.yul\":12806:12815   */\n      dup6\n        /* \"#utility.yul\":12802:12820   */\n      add\n        /* \"#utility.yul\":12789:12820   */\n      swap5\n      pop\n        /* \"#utility.yul\":12663:12667   */\n      0x20\n        /* \"#utility.yul\":12660:12661   */\n      dup2\n        /* \"#utility.yul\":12656:12668   */\n      add\n        /* \"#utility.yul\":12651:12668   */\n      swap1\n      pop\n        /* \"#utility.yul\":12626:12834   */\n      jump(tag_270)\n    tag_272:\n        /* \"#utility.yul\":12862:12868   */\n      dup7\n        /* \"#utility.yul\":12853:12860   */\n      dup4\n        /* \"#utility.yul\":12850:12869   */\n      lt\n        /* \"#utility.yul\":12847:13026   */\n      iszero\n      tag_273\n      jumpi\n        /* \"#utility.yul\":12920:12929   */\n      dup5\n        /* \"#utility.yul\":12915:12918   */\n      dup10\n        /* \"#utility.yul\":12911:12930   */\n      add\n        /* \"#utility.yul\":12905:12931   */\n      mload\n        /* \"#utility.yul\":12963:13011   */\n      tag_274\n        /* \"#utility.yul\":13005:13009   */\n      0x1f\n        /* \"#utility.yul\":12997:13003   */\n      dup10\n        /* \"#utility.yul\":12993:13010   */\n      and\n        /* \"#utility.yul\":12982:12991   */\n      dup3\n        /* \"#utility.yul\":12963:13011   */\n      tag_114\n      jump\t// in\n    tag_274:\n        /* \"#utility.yul\":12955:12961   */\n      dup4\n        /* \"#utility.yul\":12948:13012   */\n      sstore\n        /* \"#utility.yul\":12870:13026   */\n      pop\n        /* \"#utility.yul\":12847:13026   */\n    tag_273:\n        /* \"#utility.yul\":13072:13073   */\n      0x01\n        /* \"#utility.yul\":13068:13069   */\n      0x02\n        /* \"#utility.yul\":13060:13066   */\n      dup9\n        /* \"#utility.yul\":13056:13070   */\n      mul\n        /* \"#utility.yul\":13052:13074   */\n      add\n        /* \"#utility.yul\":13046:13050   */\n      dup9\n        /* \"#utility.yul\":13039:13075   */\n      sstore\n        /* \"#utility.yul\":12474:13085   */\n      pop\n      pop\n      pop\n        /* \"#utility.yul\":12437:13324   */\n    tag_265:\n      pop\n        /* \"#utility.yul\":12027:13330   */\n      pop\n      pop\n      pop\n        /* \"#utility.yul\":11935:13330   */\n      pop\n      pop\n      jump\t// out\n        /* \"#utility.yul\":13336:13561   */\n    tag_116:\n        /* \"#utility.yul\":13476:13510   */\n      0x4f6e6c7920746865206f776e65722063616e20706572666f726d207468697320\n        /* \"#utility.yul\":13472:13473   */\n      0x00\n        /* \"#utility.yul\":13464:13470   */\n      dup3\n        /* \"#utility.yul\":13460:13474   */\n      add\n        /* \"#utility.yul\":13453:13511   */\n      mstore\n        /* \"#utility.yul\":13545:13553   */\n      0x616374696f6e0000000000000000000000000000000000000000000000000000\n        /* \"#utility.yul\":13540:13542   */\n      0x20\n        /* \"#utility.yul\":13532:13538   */\n      dup3\n        /* \"#utility.yul\":13528:13543   */\n      add\n        /* \"#utility.yul\":13521:13554   */\n      mstore\n        /* \"#utility.yul\":13336:13561   */\n      pop\n      jump\t// out\n        /* \"#utility.yul\":13567:13933   */\n    tag_117:\n        /* \"#utility.yul\":13709:13712   */\n      0x00\n        /* \"#utility.yul\":13730:13797   */\n      tag_277\n        /* \"#utility.yul\":13794:13796   */\n      0x26\n        /* \"#utility.yul\":13789:13792   */\n      dup4\n        /* \"#utility.yul\":13730:13797   */\n      tag_88\n      jump\t// in\n    tag_277:\n        /* \"#utility.yul\":13723:13797   */\n      swap2\n      pop\n        /* \"#utility.yul\":13806:13899   */\n      tag_278\n        /* \"#utility.yul\":13895:13898   */\n      dup3\n        /* \"#utility.yul\":13806:13899   */\n      tag_116\n      jump\t// in\n    tag_278:\n        /* \"#utility.yul\":13924:13926   */\n      0x40\n        /* \"#utility.yul\":13919:13922   */\n      dup3\n        /* \"#utility.yul\":13915:13927   */\n      add\n        /* \"#utility.yul\":13908:13927   */\n      swap1\n      pop\n        /* \"#utility.yul\":13567:13933   */\n      swap2\n      swap1\n      pop\n      jump\t// out\n        /* \"#utility.yul\":13939:14358   */\n    tag_44:\n        /* \"#utility.yul\":14105:14109   */\n      0x00\n        /* \"#utility.yul\":14143:14145   */\n      0x20\n        /* \"#utility.yul\":14132:14141   */\n      dup3\n        /* \"#utility.yul\":14128:14146   */\n      add\n        /* \"#utility.yul\":14120:14146   */\n      swap1\n      pop\n        /* \"#utility.yul\":14192:14201   */\n      dup2\n        /* \"#utility.yul\":14186:14190   */\n      dup2\n        /* \"#utility.yul\":14182:14202   */\n      sub\n        /* \"#utility.yul\":14178:14179   */\n      0x00\n        /* \"#utility.yul\":14167:14176   */\n      dup4\n        /* \"#utility.yul\":14163:14180   */\n      add\n        /* \"#utility.yul\":14156:14203   */\n      mstore\n        /* \"#utility.yul\":14220:14351   */\n      tag_280\n        /* \"#utility.yul\":14346:14350   */\n      dup2\n        /* \"#utility.yul\":14220:14351   */\n      tag_117\n      jump\t// in\n    tag_280:\n        /* \"#utility.yul\":14212:14351   */\n      swap1\n      pop\n        /* \"#utility.yul\":13939:14358   */\n      swap2\n      swap1\n      pop\n      jump\t// out\n        /* \"#utility.yul\":14364:14596   */\n    tag_118:\n        /* \"#utility.yul\":14504:14538   */\n      0x496e73756666696369656e742066756e647320746f2062757920746869732073\n        /* \"#utility.yul\":14500:14501   */\n      0x00\n        /* \"#utility.yul\":14492:14498   */\n      dup3\n        /* \"#utility.yul\":14488:14502   */\n      add\n        /* \"#utility.yul\":14481:14539   */\n      mstore\n        /* \"#utility.yul\":14573:14588   */\n      0x6563757269747920706170657200000000000000000000000000000000000000\n        /* \"#utility.yul\":14568:14570   */\n      0x20\n        /* \"#utility.yul\":14560:14566   */\n      dup3\n        /* \"#utility.yul\":14556:14571   */\n      add\n        /* \"#utility.yul\":14549:14589   */\n      mstore\n        /* \"#utility.yul\":14364:14596   */\n      pop\n      jump\t// out\n        /* \"#utility.yul\":14602:14968   */\n    tag_119:\n        /* \"#utility.yul\":14744:14747   */\n      0x00\n        /* \"#utility.yul\":14765:14832   */\n      tag_283\n        /* \"#utility.yul\":14829:14831   */\n      0x2d\n        /* \"#utility.yul\":14824:14827   */\n      dup4\n        /* \"#utility.yul\":14765:14832   */\n      tag_88\n      jump\t// in\n    tag_283:\n        /* \"#utility.yul\":14758:14832   */\n      swap2\n      pop\n        /* \"#utility.yul\":14841:14934   */\n      tag_284\n        /* \"#utility.yul\":14930:14933   */\n      dup3\n        /* \"#utility.yul\":14841:14934   */\n      tag_118\n      jump\t// in\n    tag_284:\n        /* \"#utility.yul\":14959:14961   */\n      0x40\n        /* \"#utility.yul\":14954:14957   */\n      dup3\n        /* \"#utility.yul\":14950:14962   */\n      add\n        /* \"#utility.yul\":14943:14962   */\n      swap1\n      pop\n        /* \"#utility.yul\":14602:14968   */\n      swap2\n      swap1\n      pop\n      jump\t// out\n        /* \"#utility.yul\":14974:15393   */\n    tag_54:\n        /* \"#utility.yul\":15140:15144   */\n      0x00\n        /* \"#utility.yul\":15178:15180   */\n      0x20\n        /* \"#utility.yul\":15167:15176   */\n      dup3\n        /* \"#utility.yul\":15163:15181   */\n      add\n        /* \"#utility.yul\":15155:15181   */\n      swap1\n      pop\n        /* \"#utility.yul\":15227:15236   */\n      dup2\n        /* \"#utility.yul\":15221:15225   */\n      dup2\n        /* \"#utility.yul\":15217:15237   */\n      sub\n        /* \"#utility.yul\":15213:15214   */\n      0x00\n        /* \"#utility.yul\":15202:15211   */\n      dup4\n        /* \"#utility.yul\":15198:15215   */\n      add\n        /* \"#utility.yul\":15191:15238   */\n      mstore\n        /* \"#utility.yul\":15255:15386   */\n      tag_286\n        /* \"#utility.yul\":15381:15385   */\n      dup2\n        /* \"#utility.yul\":15255:15386   */\n      tag_119\n      jump\t// in\n    tag_286:\n        /* \"#utility.yul\":15247:15386   */\n      swap1\n      pop\n        /* \"#utility.yul\":14974:15393   */\n      swap2\n      swap1\n      pop\n      jump\t// out\n        /* \"#utility.yul\":15399:15627   */\n    tag_120:\n        /* \"#utility.yul\":15539:15573   */\n      0x546869732073656375726974792070617065722068617320616c726561647920\n        /* \"#utility.yul\":15535:15536   */\n      0x00\n        /* \"#utility.yul\":15527:15533   */\n      dup3\n        /* \"#utility.yul\":15523:15537   */\n      add\n        /* \"#utility.yul\":15516:15574   */\n      mstore\n        /* \"#utility.yul\":15608:15619   */\n      0x6265656e20736f6c640000000000000000000000000000000000000000000000\n        /* \"#utility.yul\":15603:15605   */\n      0x20\n        /* \"#utility.yul\":15595:15601   */\n      dup3\n        /* \"#utility.yul\":15591:15606   */\n      add\n        /* \"#utility.yul\":15584:15620   */\n      mstore\n        /* \"#utility.yul\":15399:15627   */\n      pop\n      jump\t// out\n        /* \"#utility.yul\":15633:15999   */\n    tag_121:\n        /* \"#utility.yul\":15775:15778   */\n      0x00\n        /* \"#utility.yul\":15796:15863   */\n      tag_289\n        /* \"#utility.yul\":15860:15862   */\n      0x29\n        /* \"#utility.yul\":15855:15858   */\n      dup4\n        /* \"#utility.yul\":15796:15863   */\n      tag_88\n      jump\t// in\n    tag_289:\n        /* \"#utility.yul\":15789:15863   */\n      swap2\n      pop\n        /* \"#utility.yul\":15872:15965   */\n      tag_290\n        /* \"#utility.yul\":15961:15964   */\n      dup3\n        /* \"#utility.yul\":15872:15965   */\n      tag_120\n      jump\t// in\n    tag_290:\n        /* \"#utility.yul\":15990:15992   */\n      0x40\n        /* \"#utility.yul\":15985:15988   */\n      dup3\n        /* \"#utility.yul\":15981:15993   */\n      add\n        /* \"#utility.yul\":15974:15993   */\n      swap1\n      pop\n        /* \"#utility.yul\":15633:15999   */\n      swap2\n      swap1\n      pop\n      jump\t// out\n        /* \"#utility.yul\":16005:16424   */\n    tag_58:\n        /* \"#utility.yul\":16171:16175   */\n      0x00\n        /* \"#utility.yul\":16209:16211   */\n      0x20\n        /* \"#utility.yul\":16198:16207   */\n      dup3\n        /* \"#utility.yul\":16194:16212   */\n      add\n        /* \"#utility.yul\":16186:16212   */\n      swap1\n      pop\n        /* \"#utility.yul\":16258:16267   */\n      dup2\n        /* \"#utility.yul\":16252:16256   */\n      dup2\n        /* \"#utility.yul\":16248:16268   */\n      sub\n        /* \"#utility.yul\":16244:16245   */\n      0x00\n        /* \"#utility.yul\":16233:16242   */\n      dup4\n        /* \"#utility.yul\":16229:16246   */\n      add\n        /* \"#utility.yul\":16222:16269   */\n      mstore\n        /* \"#utility.yul\":16286:16417   */\n      tag_292\n        /* \"#utility.yul\":16412:16416   */\n      dup2\n        /* \"#utility.yul\":16286:16417   */\n      tag_121\n      jump\t// in\n    tag_292:\n        /* \"#utility.yul\":16278:16417   */\n      swap1\n      pop\n        /* \"#utility.yul\":16005:16424   */\n      swap2\n      swap1\n      pop\n      jump\t// out\n\n    auxdata: 0xa264697066735822122099e21f8cce3b392b615c0a663f5dbd70d0f0fc56671b2657b7732f995debab8264736f6c63430008160033\n}\n",
				"bytecode": {
					"linkReferences": {},
					"object": "60806040525f8055348015610012575f80fd5b50611241806100205f395ff3fe608060405260043610610049575f3560e01c806374b461f11461004d578063a74d10b714610077578063a96eaf5e1461009f578063ab60c815146100de578063ae0fae05146100fa575b5f80fd5b348015610058575f80fd5b50610061610122565b60405161006e919061092b565b60405180910390f35b348015610082575f80fd5b5061009d60048036038101906100989190610abb565b610127565b005b3480156100aa575f80fd5b506100c560048036038101906100c09190610b15565b6102cc565b6040516100d59493929190610bf9565b60405180910390f35b6100f860048036038101906100f39190610b15565b610506565b005b348015610105575f80fd5b50610120600480360381019061011b9190610c7e565b61075a565b005b5f5481565b5f73ffffffffffffffffffffffffffffffffffffffff163373ffffffffffffffffffffffffffffffffffffffff1603610195576040517f08c379a000000000000000000000000000000000000000000000000000000000815260040161018c90610d06565b60405180910390fd5b5f808154809291906101a690610d51565b91905055506040518060a001604052805f5481526020018381526020018281526020013373ffffffffffffffffffffffffffffffffffffffff1681526020015f73ffffffffffffffffffffffffffffffffffffffff1681525060015f805481526020019081526020015f205f820151815f0155602082015181600101908161022e9190610f92565b50604082015181600201556060820151816003015f6101000a81548173ffffffffffffffffffffffffffffffffffffffff021916908373ffffffffffffffffffffffffffffffffffffffff1602179055506080820151816004015f6101000a81548173ffffffffffffffffffffffffffffffffffffffff021916908373ffffffffffffffffffffffffffffffffffffffff1602179055509050505050565b60605f805f8073ffffffffffffffffffffffffffffffffffffffff1660015f8781526020019081526020015f206004015f9054906101000a900473ffffffffffffffffffffffffffffffffffffffff1673ffffffffffffffffffffffffffffffffffffffff1614158061039d575060015f8681526020019081526020015f206003015f9054906101000a900473ffffffffffffffffffffffffffffffffffffffff1673ffffffffffffffffffffffffffffffffffffffff163373ffffffffffffffffffffffffffffffffffffffff16145b6103dc576040517f08c379a00000000000000000000000000000000000000000000000000000000081526004016103d3906110d1565b60405180910390fd5b60015f8681526020019081526020015f2060010160015f8781526020019081526020015f206002015460015f8881526020019081526020015f206003015f9054906101000a900473ffffffffffffffffffffffffffffffffffffffff1660015f8981526020019081526020015f206004015f9054906101000a900473ffffffffffffffffffffffffffffffffffffffff1683805461047990610dc5565b80601f01602080910402602001604051908101604052809291908181526020018280546104a590610dc5565b80156104f05780601f106104c7576101008083540402835291602001916104f0565b820191905f5260205f20905b8154815290600101906020018083116104d357829003601f168201915b5050505050935093509350935093509193509193565b8060015f8281526020019081526020015f206002015434101561055e576040517f08c379a00000000000000000000000000000000000000000000000000000000081526004016105559061115f565b60405180910390fd5b815f73ffffffffffffffffffffffffffffffffffffffff1660015f8381526020019081526020015f206004015f9054906101000a900473ffffffffffffffffffffffffffffffffffffffff1673ffffffffffffffffffffffffffffffffffffffff1614610600576040517f08c379a00000000000000000000000000000000000000000000000000000000081526004016105f7906111ed565b60405180910390fd5b5f73ffffffffffffffffffffffffffffffffffffffff163373ffffffffffffffffffffffffffffffffffffffff160361066e576040517f08c379a000000000000000000000000000000000000000000000000000000000815260040161066590610d06565b60405180910390fd5b5f60015f8581526020019081526020015f206003015f9054906101000a900473ffffffffffffffffffffffffffffffffffffffff1690505f60015f8681526020019081526020015f206002015490508173ffffffffffffffffffffffffffffffffffffffff166108fc8290811502906040515f60405180830381858888f19350505050158015610700573d5f803e3d5ffd5b503360015f8781526020019081526020015f206004015f6101000a81548173ffffffffffffffffffffffffffffffffffffffff021916908373ffffffffffffffffffffffffffffffffffffffff1602179055505050505050565b8160015f8281526020019081526020015f206003015f9054906101000a900473ffffffffffffffffffffffffffffffffffffffff1673ffffffffffffffffffffffffffffffffffffffff163373ffffffffffffffffffffffffffffffffffffffff16146107fc576040517f08c379a00000000000000000000000000000000000000000000000000000000081526004016107f3906110d1565b60405180910390fd5b5f73ffffffffffffffffffffffffffffffffffffffff168273ffffffffffffffffffffffffffffffffffffffff160361086a576040517f08c379a000000000000000000000000000000000000000000000000000000000815260040161086190610d06565b60405180910390fd5b8160015f8581526020019081526020015f206003015f6101000a81548173ffffffffffffffffffffffffffffffffffffffff021916908373ffffffffffffffffffffffffffffffffffffffff1602179055505f60015f8581526020019081526020015f206004015f6101000a81548173ffffffffffffffffffffffffffffffffffffffff021916908373ffffffffffffffffffffffffffffffffffffffff160217905550505050565b5f819050919050565b61092581610913565b82525050565b5f60208201905061093e5f83018461091c565b92915050565b5f604051905090565b5f80fd5b5f80fd5b5f80fd5b5f80fd5b5f601f19601f8301169050919050565b7f4e487b71000000000000000000000000000000000000000000000000000000005f52604160045260245ffd5b6109a38261095d565b810181811067ffffffffffffffff821117156109c2576109c161096d565b5b80604052505050565b5f6109d4610944565b90506109e0828261099a565b919050565b5f67ffffffffffffffff8211156109ff576109fe61096d565b5b610a088261095d565b9050602081019050919050565b828183375f83830152505050565b5f610a35610a30846109e5565b6109cb565b905082815260208101848484011115610a5157610a50610959565b5b610a5c848285610a15565b509392505050565b5f82601f830112610a7857610a77610955565b5b8135610a88848260208601610a23565b91505092915050565b610a9a81610913565b8114610aa4575f80fd5b50565b5f81359050610ab581610a91565b92915050565b5f8060408385031215610ad157610ad061094d565b5b5f83013567ffffffffffffffff811115610aee57610aed610951565b5b610afa85828601610a64565b9250506020610b0b85828601610aa7565b9150509250929050565b5f60208284031215610b2a57610b2961094d565b5b5f610b3784828501610aa7565b91505092915050565b5f81519050919050565b5f82825260208201905092915050565b5f5b83811015610b77578082015181840152602081019050610b5c565b5f8484015250505050565b5f610b8c82610b40565b610b968185610b4a565b9350610ba6818560208601610b5a565b610baf8161095d565b840191505092915050565b5f73ffffffffffffffffffffffffffffffffffffffff82169050919050565b5f610be382610bba565b9050919050565b610bf381610bd9565b82525050565b5f6080820190508181035f830152610c118187610b82565b9050610c20602083018661091c565b610c2d6040830185610bea565b610c3a6060830184610bea565b95945050505050565b5f610c4d82610bba565b9050919050565b610c5d81610c43565b8114610c67575f80fd5b50565b5f81359050610c7881610c54565b92915050565b5f8060408385031215610c9457610c9361094d565b5b5f610ca185828601610aa7565b9250506020610cb285828601610c6a565b9150509250929050565b7f496e76616c6964206164647265737300000000000000000000000000000000005f82015250565b5f610cf0600f83610b4a565b9150610cfb82610cbc565b602082019050919050565b5f6020820190508181035f830152610d1d81610ce4565b9050919050565b7f4e487b71000000000000000000000000000000000000000000000000000000005f52601160045260245ffd5b5f610d5b82610913565b91507fffffffffffffffffffffffffffffffffffffffffffffffffffffffffffffffff8203610d8d57610d8c610d24565b5b600182019050919050565b7f4e487b71000000000000000000000000000000000000000000000000000000005f52602260045260245ffd5b5f6002820490506001821680610ddc57607f821691505b602082108103610def57610dee610d98565b5b50919050565b5f819050815f5260205f209050919050565b5f6020601f8301049050919050565b5f82821b905092915050565b5f60088302610e517fffffffffffffffffffffffffffffffffffffffffffffffffffffffffffffffff82610e16565b610e5b8683610e16565b95508019841693508086168417925050509392505050565b5f819050919050565b5f610e96610e91610e8c84610913565b610e73565b610913565b9050919050565b5f819050919050565b610eaf83610e7c565b610ec3610ebb82610e9d565b848454610e22565b825550505050565b5f90565b610ed7610ecb565b610ee2818484610ea6565b505050565b5b81811015610f0557610efa5f82610ecf565b600181019050610ee8565b5050565b601f821115610f4a57610f1b81610df5565b610f2484610e07565b81016020851015610f33578190505b610f47610f3f85610e07565b830182610ee7565b50505b505050565b5f82821c905092915050565b5f610f6a5f1984600802610f4f565b1980831691505092915050565b5f610f828383610f5b565b9150826002028217905092915050565b610f9b82610b40565b67ffffffffffffffff811115610fb457610fb361096d565b5b610fbe8254610dc5565b610fc9828285610f09565b5f60209050601f831160018114610ffa575f8415610fe8578287015190505b610ff28582610f77565b865550611059565b601f19841661100886610df5565b5f5b8281101561102f5784890151825560018201915060208501945060208101905061100a565b8683101561104c5784890151611048601f891682610f5b565b8355505b6001600288020188555050505b505050505050565b7f4f6e6c7920746865206f776e65722063616e20706572666f726d2074686973205f8201527f616374696f6e0000000000000000000000000000000000000000000000000000602082015250565b5f6110bb602683610b4a565b91506110c682611061565b604082019050919050565b5f6020820190508181035f8301526110e8816110af565b9050919050565b7f496e73756666696369656e742066756e647320746f20627579207468697320735f8201527f6563757269747920706170657200000000000000000000000000000000000000602082015250565b5f611149602d83610b4a565b9150611154826110ef565b604082019050919050565b5f6020820190508181035f8301526111768161113d565b9050919050565b7f546869732073656375726974792070617065722068617320616c7265616479205f8201527f6265656e20736f6c640000000000000000000000000000000000000000000000602082015250565b5f6111d7602983610b4a565b91506111e28261117d565b604082019050919050565b5f6020820190508181035f830152611204816111cb565b905091905056fea264697066735822122099e21f8cce3b392b615c0a663f5dbd70d0f0fc56671b2657b7732f995debab8264736f6c63430008160033",
					"opcodes": "PUSH1 0x80 PUSH1 0x40 MSTORE PUSH0 DUP1 SSTORE CALLVALUE DUP1 ISZERO PUSH2 0x12 JUMPI PUSH0 DUP1 REVERT JUMPDEST POP PUSH2 0x1241 DUP1 PUSH2 0x20 PUSH0 CODECOPY PUSH0 RETURN INVALID PUSH1 0x80 PUSH1 0x40 MSTORE PUSH1 0x4 CALLDATASIZE LT PUSH2 0x49 JUMPI PUSH0 CALLDATALOAD PUSH1 0xE0 SHR DUP1 PUSH4 0x74B461F1 EQ PUSH2 0x4D JUMPI DUP1 PUSH4 0xA74D10B7 EQ PUSH2 0x77 JUMPI DUP1 PUSH4 0xA96EAF5E EQ PUSH2 0x9F JUMPI DUP1 PUSH4 0xAB60C815 EQ PUSH2 0xDE JUMPI DUP1 PUSH4 0xAE0FAE05 EQ PUSH2 0xFA JUMPI JUMPDEST PUSH0 DUP1 REVERT JUMPDEST CALLVALUE DUP1 ISZERO PUSH2 0x58 JUMPI PUSH0 DUP1 REVERT JUMPDEST POP PUSH2 0x61 PUSH2 0x122 JUMP JUMPDEST PUSH1 0x40 MLOAD PUSH2 0x6E SWAP2 SWAP1 PUSH2 0x92B JUMP JUMPDEST PUSH1 0x40 MLOAD DUP1 SWAP2 SUB SWAP1 RETURN JUMPDEST CALLVALUE DUP1 ISZERO PUSH2 0x82 JUMPI PUSH0 DUP1 REVERT JUMPDEST POP PUSH2 0x9D PUSH1 0x4 DUP1 CALLDATASIZE SUB DUP2 ADD SWAP1 PUSH2 0x98 SWAP2 SWAP1 PUSH2 0xABB JUMP JUMPDEST PUSH2 0x127 JUMP JUMPDEST STOP JUMPDEST CALLVALUE DUP1 ISZERO PUSH2 0xAA JUMPI PUSH0 DUP1 REVERT JUMPDEST POP PUSH2 0xC5 PUSH1 0x4 DUP1 CALLDATASIZE SUB DUP2 ADD SWAP1 PUSH2 0xC0 SWAP2 SWAP1 PUSH2 0xB15 JUMP JUMPDEST PUSH2 0x2CC JUMP JUMPDEST PUSH1 0x40 MLOAD PUSH2 0xD5 SWAP5 SWAP4 SWAP3 SWAP2 SWAP1 PUSH2 0xBF9 JUMP JUMPDEST PUSH1 0x40 MLOAD DUP1 SWAP2 SUB SWAP1 RETURN JUMPDEST PUSH2 0xF8 PUSH1 0x4 DUP1 CALLDATASIZE SUB DUP2 ADD SWAP1 PUSH2 0xF3 SWAP2 SWAP1 PUSH2 0xB15 JUMP JUMPDEST PUSH2 0x506 JUMP JUMPDEST STOP JUMPDEST CALLVALUE DUP1 ISZERO PUSH2 0x105 JUMPI PUSH0 DUP1 REVERT JUMPDEST POP PUSH2 0x120 PUSH1 0x4 DUP1 CALLDATASIZE SUB DUP2 ADD SWAP1 PUSH2 0x11B SWAP2 SWAP1 PUSH2 0xC7E JUMP JUMPDEST PUSH2 0x75A JUMP JUMPDEST STOP JUMPDEST PUSH0 SLOAD DUP2 JUMP JUMPDEST PUSH0 PUSH20 0xFFFFFFFFFFFFFFFFFFFFFFFFFFFFFFFFFFFFFFFF AND CALLER PUSH20 0xFFFFFFFFFFFFFFFFFFFFFFFFFFFFFFFFFFFFFFFF AND SUB PUSH2 0x195 JUMPI PUSH1 0x40 MLOAD PUSH32 0x8C379A000000000000000000000000000000000000000000000000000000000 DUP2 MSTORE PUSH1 0x4 ADD PUSH2 0x18C SWAP1 PUSH2 0xD06 JUMP JUMPDEST PUSH1 0x40 MLOAD DUP1 SWAP2 SUB SWAP1 REVERT JUMPDEST PUSH0 DUP1 DUP2 SLOAD DUP1 SWAP3 SWAP2 SWAP1 PUSH2 0x1A6 SWAP1 PUSH2 0xD51 JUMP JUMPDEST SWAP2 SWAP1 POP SSTORE POP PUSH1 0x40 MLOAD DUP1 PUSH1 0xA0 ADD PUSH1 0x40 MSTORE DUP1 PUSH0 SLOAD DUP2 MSTORE PUSH1 0x20 ADD DUP4 DUP2 MSTORE PUSH1 0x20 ADD DUP3 DUP2 MSTORE PUSH1 0x20 ADD CALLER PUSH20 0xFFFFFFFFFFFFFFFFFFFFFFFFFFFFFFFFFFFFFFFF AND DUP2 MSTORE PUSH1 0x20 ADD PUSH0 PUSH20 0xFFFFFFFFFFFFFFFFFFFFFFFFFFFFFFFFFFFFFFFF AND DUP2 MSTORE POP PUSH1 0x1 PUSH0 DUP1 SLOAD DUP2 MSTORE PUSH1 0x20 ADD SWAP1 DUP2 MSTORE PUSH1 0x20 ADD PUSH0 KECCAK256 PUSH0 DUP3 ADD MLOAD DUP2 PUSH0 ADD SSTORE PUSH1 0x20 DUP3 ADD MLOAD DUP2 PUSH1 0x1 ADD SWAP1 DUP2 PUSH2 0x22E SWAP2 SWAP1 PUSH2 0xF92 JUMP JUMPDEST POP PUSH1 0x40 DUP3 ADD MLOAD DUP2 PUSH1 0x2 ADD SSTORE PUSH1 0x60 DUP3 ADD MLOAD DUP2 PUSH1 0x3 ADD PUSH0 PUSH2 0x100 EXP DUP2 SLOAD DUP2 PUSH20 0xFFFFFFFFFFFFFFFFFFFFFFFFFFFFFFFFFFFFFFFF MUL NOT AND SWAP1 DUP4 PUSH20 0xFFFFFFFFFFFFFFFFFFFFFFFFFFFFFFFFFFFFFFFF AND MUL OR SWAP1 SSTORE POP PUSH1 0x80 DUP3 ADD MLOAD DUP2 PUSH1 0x4 ADD PUSH0 PUSH2 0x100 EXP DUP2 SLOAD DUP2 PUSH20 0xFFFFFFFFFFFFFFFFFFFFFFFFFFFFFFFFFFFFFFFF MUL NOT AND SWAP1 DUP4 PUSH20 0xFFFFFFFFFFFFFFFFFFFFFFFFFFFFFFFFFFFFFFFF AND MUL OR SWAP1 SSTORE POP SWAP1 POP POP POP POP JUMP JUMPDEST PUSH1 0x60 PUSH0 DUP1 PUSH0 DUP1 PUSH20 0xFFFFFFFFFFFFFFFFFFFFFFFFFFFFFFFFFFFFFFFF AND PUSH1 0x1 PUSH0 DUP8 DUP2 MSTORE PUSH1 0x20 ADD SWAP1 DUP2 MSTORE PUSH1 0x20 ADD PUSH0 KECCAK256 PUSH1 0x4 ADD PUSH0 SWAP1 SLOAD SWAP1 PUSH2 0x100 EXP SWAP1 DIV PUSH20 0xFFFFFFFFFFFFFFFFFFFFFFFFFFFFFFFFFFFFFFFF AND PUSH20 0xFFFFFFFFFFFFFFFFFFFFFFFFFFFFFFFFFFFFFFFF AND EQ ISZERO DUP1 PUSH2 0x39D JUMPI POP PUSH1 0x1 PUSH0 DUP7 DUP2 MSTORE PUSH1 0x20 ADD SWAP1 DUP2 MSTORE PUSH1 0x20 ADD PUSH0 KECCAK256 PUSH1 0x3 ADD PUSH0 SWAP1 SLOAD SWAP1 PUSH2 0x100 EXP SWAP1 DIV PUSH20 0xFFFFFFFFFFFFFFFFFFFFFFFFFFFFFFFFFFFFFFFF AND PUSH20 0xFFFFFFFFFFFFFFFFFFFFFFFFFFFFFFFFFFFFFFFF AND CALLER PUSH20 0xFFFFFFFFFFFFFFFFFFFFFFFFFFFFFFFFFFFFFFFF AND EQ JUMPDEST PUSH2 0x3DC JUMPI PUSH1 0x40 MLOAD PUSH32 0x8C379A000000000000000000000000000000000000000000000000000000000 DUP2 MSTORE PUSH1 0x4 ADD PUSH2 0x3D3 SWAP1 PUSH2 0x10D1 JUMP JUMPDEST PUSH1 0x40 MLOAD DUP1 SWAP2 SUB SWAP1 REVERT JUMPDEST PUSH1 0x1 PUSH0 DUP7 DUP2 MSTORE PUSH1 0x20 ADD SWAP1 DUP2 MSTORE PUSH1 0x20 ADD PUSH0 KECCAK256 PUSH1 0x1 ADD PUSH1 0x1 PUSH0 DUP8 DUP2 MSTORE PUSH1 0x20 ADD SWAP1 DUP2 MSTORE PUSH1 0x20 ADD PUSH0 KECCAK256 PUSH1 0x2 ADD SLOAD PUSH1 0x1 PUSH0 DUP9 DUP2 MSTORE PUSH1 0x20 ADD SWAP1 DUP2 MSTORE PUSH1 0x20 ADD PUSH0 KECCAK256 PUSH1 0x3 ADD PUSH0 SWAP1 SLOAD SWAP1 PUSH2 0x100 EXP SWAP1 DIV PUSH20 0xFFFFFFFFFFFFFFFFFFFFFFFFFFFFFFFFFFFFFFFF AND PUSH1 0x1 PUSH0 DUP10 DUP2 MSTORE PUSH1 0x20 ADD SWAP1 DUP2 MSTORE PUSH1 0x20 ADD PUSH0 KECCAK256 PUSH1 0x4 ADD PUSH0 SWAP1 SLOAD SWAP1 PUSH2 0x100 EXP SWAP1 DIV PUSH20 0xFFFFFFFFFFFFFFFFFFFFFFFFFFFFFFFFFFFFFFFF AND DUP4 DUP1 SLOAD PUSH2 0x479 SWAP1 PUSH2 0xDC5 JUMP JUMPDEST DUP1 PUSH1 0x1F ADD PUSH1 0x20 DUP1 SWAP2 DIV MUL PUSH1 0x20 ADD PUSH1 0x40 MLOAD SWAP1 DUP2 ADD PUSH1 0x40 MSTORE DUP1 SWAP3 SWAP2 SWAP1 DUP2 DUP2 MSTORE PUSH1 0x20 ADD DUP3 DUP1 SLOAD PUSH2 0x4A5 SWAP1 PUSH2 0xDC5 JUMP JUMPDEST DUP1 ISZERO PUSH2 0x4F0 JUMPI DUP1 PUSH1 0x1F LT PUSH2 0x4C7 JUMPI PUSH2 0x100 DUP1 DUP4 SLOAD DIV MUL DUP4 MSTORE SWAP2 PUSH1 0x20 ADD SWAP2 PUSH2 0x4F0 JUMP JUMPDEST DUP3 ADD SWAP2 SWAP1 PUSH0 MSTORE PUSH1 0x20 PUSH0 KECCAK256 SWAP1 JUMPDEST DUP2 SLOAD DUP2 MSTORE SWAP1 PUSH1 0x1 ADD SWAP1 PUSH1 0x20 ADD DUP1 DUP4 GT PUSH2 0x4D3 JUMPI DUP3 SWAP1 SUB PUSH1 0x1F AND DUP3 ADD SWAP2 JUMPDEST POP POP POP POP POP SWAP4 POP SWAP4 POP SWAP4 POP SWAP4 POP SWAP4 POP SWAP2 SWAP4 POP SWAP2 SWAP4 JUMP JUMPDEST DUP1 PUSH1 0x1 PUSH0 DUP3 DUP2 MSTORE PUSH1 0x20 ADD SWAP1 DUP2 MSTORE PUSH1 0x20 ADD PUSH0 KECCAK256 PUSH1 0x2 ADD SLOAD CALLVALUE LT ISZERO PUSH2 0x55E JUMPI PUSH1 0x40 MLOAD PUSH32 0x8C379A000000000000000000000000000000000000000000000000000000000 DUP2 MSTORE PUSH1 0x4 ADD PUSH2 0x555 SWAP1 PUSH2 0x115F JUMP JUMPDEST PUSH1 0x40 MLOAD DUP1 SWAP2 SUB SWAP1 REVERT JUMPDEST DUP2 PUSH0 PUSH20 0xFFFFFFFFFFFFFFFFFFFFFFFFFFFFFFFFFFFFFFFF AND PUSH1 0x1 PUSH0 DUP4 DUP2 MSTORE PUSH1 0x20 ADD SWAP1 DUP2 MSTORE PUSH1 0x20 ADD PUSH0 KECCAK256 PUSH1 0x4 ADD PUSH0 SWAP1 SLOAD SWAP1 PUSH2 0x100 EXP SWAP1 DIV PUSH20 0xFFFFFFFFFFFFFFFFFFFFFFFFFFFFFFFFFFFFFFFF AND PUSH20 0xFFFFFFFFFFFFFFFFFFFFFFFFFFFFFFFFFFFFFFFF AND EQ PUSH2 0x600 JUMPI PUSH1 0x40 MLOAD PUSH32 0x8C379A000000000000000000000000000000000000000000000000000000000 DUP2 MSTORE PUSH1 0x4 ADD PUSH2 0x5F7 SWAP1 PUSH2 0x11ED JUMP JUMPDEST PUSH1 0x40 MLOAD DUP1 SWAP2 SUB SWAP1 REVERT JUMPDEST PUSH0 PUSH20 0xFFFFFFFFFFFFFFFFFFFFFFFFFFFFFFFFFFFFFFFF AND CALLER PUSH20 0xFFFFFFFFFFFFFFFFFFFFFFFFFFFFFFFFFFFFFFFF AND SUB PUSH2 0x66E JUMPI PUSH1 0x40 MLOAD PUSH32 0x8C379A000000000000000000000000000000000000000000000000000000000 DUP2 MSTORE PUSH1 0x4 ADD PUSH2 0x665 SWAP1 PUSH2 0xD06 JUMP JUMPDEST PUSH1 0x40 MLOAD DUP1 SWAP2 SUB SWAP1 REVERT JUMPDEST PUSH0 PUSH1 0x1 PUSH0 DUP6 DUP2 MSTORE PUSH1 0x20 ADD SWAP1 DUP2 MSTORE PUSH1 0x20 ADD PUSH0 KECCAK256 PUSH1 0x3 ADD PUSH0 SWAP1 SLOAD SWAP1 PUSH2 0x100 EXP SWAP1 DIV PUSH20 0xFFFFFFFFFFFFFFFFFFFFFFFFFFFFFFFFFFFFFFFF AND SWAP1 POP PUSH0 PUSH1 0x1 PUSH0 DUP7 DUP2 MSTORE PUSH1 0x20 ADD SWAP1 DUP2 MSTORE PUSH1 0x20 ADD PUSH0 KECCAK256 PUSH1 0x2 ADD SLOAD SWAP1 POP DUP2 PUSH20 0xFFFFFFFFFFFFFFFFFFFFFFFFFFFFFFFFFFFFFFFF AND PUSH2 0x8FC DUP3 SWAP1 DUP2 ISZERO MUL SWAP1 PUSH1 0x40 MLOAD PUSH0 PUSH1 0x40 MLOAD DUP1 DUP4 SUB DUP2 DUP6 DUP9 DUP9 CALL SWAP4 POP POP POP POP ISZERO DUP1 ISZERO PUSH2 0x700 JUMPI RETURNDATASIZE PUSH0 DUP1 RETURNDATACOPY RETURNDATASIZE PUSH0 REVERT JUMPDEST POP CALLER PUSH1 0x1 PUSH0 DUP8 DUP2 MSTORE PUSH1 0x20 ADD SWAP1 DUP2 MSTORE PUSH1 0x20 ADD PUSH0 KECCAK256 PUSH1 0x4 ADD PUSH0 PUSH2 0x100 EXP DUP2 SLOAD DUP2 PUSH20 0xFFFFFFFFFFFFFFFFFFFFFFFFFFFFFFFFFFFFFFFF MUL NOT AND SWAP1 DUP4 PUSH20 0xFFFFFFFFFFFFFFFFFFFFFFFFFFFFFFFFFFFFFFFF AND MUL OR SWAP1 SSTORE POP POP POP POP POP POP JUMP JUMPDEST DUP2 PUSH1 0x1 PUSH0 DUP3 DUP2 MSTORE PUSH1 0x20 ADD SWAP1 DUP2 MSTORE PUSH1 0x20 ADD PUSH0 KECCAK256 PUSH1 0x3 ADD PUSH0 SWAP1 SLOAD SWAP1 PUSH2 0x100 EXP SWAP1 DIV PUSH20 0xFFFFFFFFFFFFFFFFFFFFFFFFFFFFFFFFFFFFFFFF AND PUSH20 0xFFFFFFFFFFFFFFFFFFFFFFFFFFFFFFFFFFFFFFFF AND CALLER PUSH20 0xFFFFFFFFFFFFFFFFFFFFFFFFFFFFFFFFFFFFFFFF AND EQ PUSH2 0x7FC JUMPI PUSH1 0x40 MLOAD PUSH32 0x8C379A000000000000000000000000000000000000000000000000000000000 DUP2 MSTORE PUSH1 0x4 ADD PUSH2 0x7F3 SWAP1 PUSH2 0x10D1 JUMP JUMPDEST PUSH1 0x40 MLOAD DUP1 SWAP2 SUB SWAP1 REVERT JUMPDEST PUSH0 PUSH20 0xFFFFFFFFFFFFFFFFFFFFFFFFFFFFFFFFFFFFFFFF AND DUP3 PUSH20 0xFFFFFFFFFFFFFFFFFFFFFFFFFFFFFFFFFFFFFFFF AND SUB PUSH2 0x86A JUMPI PUSH1 0x40 MLOAD PUSH32 0x8C379A000000000000000000000000000000000000000000000000000000000 DUP2 MSTORE PUSH1 0x4 ADD PUSH2 0x861 SWAP1 PUSH2 0xD06 JUMP JUMPDEST PUSH1 0x40 MLOAD DUP1 SWAP2 SUB SWAP1 REVERT JUMPDEST DUP2 PUSH1 0x1 PUSH0 DUP6 DUP2 MSTORE PUSH1 0x20 ADD SWAP1 DUP2 MSTORE PUSH1 0x20 ADD PUSH0 KECCAK256 PUSH1 0x3 ADD PUSH0 PUSH2 0x100 EXP DUP2 SLOAD DUP2 PUSH20 0xFFFFFFFFFFFFFFFFFFFFFFFFFFFFFFFFFFFFFFFF MUL NOT AND SWAP1 DUP4 PUSH20 0xFFFFFFFFFFFFFFFFFFFFFFFFFFFFFFFFFFFFFFFF AND MUL OR SWAP1 SSTORE POP PUSH0 PUSH1 0x1 PUSH0 DUP6 DUP2 MSTORE PUSH1 0x20 ADD SWAP1 DUP2 MSTORE PUSH1 0x20 ADD PUSH0 KECCAK256 PUSH1 0x4 ADD PUSH0 PUSH2 0x100 EXP DUP2 SLOAD DUP2 PUSH20 0xFFFFFFFFFFFFFFFFFFFFFFFFFFFFFFFFFFFFFFFF MUL NOT AND SWAP1 DUP4 PUSH20 0xFFFFFFFFFFFFFFFFFFFFFFFFFFFFFFFFFFFFFFFF AND MUL OR SWAP1 SSTORE POP POP POP POP JUMP JUMPDEST PUSH0 DUP2 SWAP1 POP SWAP2 SWAP1 POP JUMP JUMPDEST PUSH2 0x925 DUP2 PUSH2 0x913 JUMP JUMPDEST DUP3 MSTORE POP POP JUMP JUMPDEST PUSH0 PUSH1 0x20 DUP3 ADD SWAP1 POP PUSH2 0x93E PUSH0 DUP4 ADD DUP5 PUSH2 0x91C JUMP JUMPDEST SWAP3 SWAP2 POP POP JUMP JUMPDEST PUSH0 PUSH1 0x40 MLOAD SWAP1 POP SWAP1 JUMP JUMPDEST PUSH0 DUP1 REVERT JUMPDEST PUSH0 DUP1 REVERT JUMPDEST PUSH0 DUP1 REVERT JUMPDEST PUSH0 DUP1 REVERT JUMPDEST PUSH0 PUSH1 0x1F NOT PUSH1 0x1F DUP4 ADD AND SWAP1 POP SWAP2 SWAP1 POP JUMP JUMPDEST PUSH32 0x4E487B7100000000000000000000000000000000000000000000000000000000 PUSH0 MSTORE PUSH1 0x41 PUSH1 0x4 MSTORE PUSH1 0x24 PUSH0 REVERT JUMPDEST PUSH2 0x9A3 DUP3 PUSH2 0x95D JUMP JUMPDEST DUP2 ADD DUP2 DUP2 LT PUSH8 0xFFFFFFFFFFFFFFFF DUP3 GT OR ISZERO PUSH2 0x9C2 JUMPI PUSH2 0x9C1 PUSH2 0x96D JUMP JUMPDEST JUMPDEST DUP1 PUSH1 0x40 MSTORE POP POP POP JUMP JUMPDEST PUSH0 PUSH2 0x9D4 PUSH2 0x944 JUMP JUMPDEST SWAP1 POP PUSH2 0x9E0 DUP3 DUP3 PUSH2 0x99A JUMP JUMPDEST SWAP2 SWAP1 POP JUMP JUMPDEST PUSH0 PUSH8 0xFFFFFFFFFFFFFFFF DUP3 GT ISZERO PUSH2 0x9FF JUMPI PUSH2 0x9FE PUSH2 0x96D JUMP JUMPDEST JUMPDEST PUSH2 0xA08 DUP3 PUSH2 0x95D JUMP JUMPDEST SWAP1 POP PUSH1 0x20 DUP2 ADD SWAP1 POP SWAP2 SWAP1 POP JUMP JUMPDEST DUP3 DUP2 DUP4 CALLDATACOPY PUSH0 DUP4 DUP4 ADD MSTORE POP POP POP JUMP JUMPDEST PUSH0 PUSH2 0xA35 PUSH2 0xA30 DUP5 PUSH2 0x9E5 JUMP JUMPDEST PUSH2 0x9CB JUMP JUMPDEST SWAP1 POP DUP3 DUP2 MSTORE PUSH1 0x20 DUP2 ADD DUP5 DUP5 DUP5 ADD GT ISZERO PUSH2 0xA51 JUMPI PUSH2 0xA50 PUSH2 0x959 JUMP JUMPDEST JUMPDEST PUSH2 0xA5C DUP5 DUP3 DUP6 PUSH2 0xA15 JUMP JUMPDEST POP SWAP4 SWAP3 POP POP POP JUMP JUMPDEST PUSH0 DUP3 PUSH1 0x1F DUP4 ADD SLT PUSH2 0xA78 JUMPI PUSH2 0xA77 PUSH2 0x955 JUMP JUMPDEST JUMPDEST DUP2 CALLDATALOAD PUSH2 0xA88 DUP5 DUP3 PUSH1 0x20 DUP7 ADD PUSH2 0xA23 JUMP JUMPDEST SWAP2 POP POP SWAP3 SWAP2 POP POP JUMP JUMPDEST PUSH2 0xA9A DUP2 PUSH2 0x913 JUMP JUMPDEST DUP2 EQ PUSH2 0xAA4 JUMPI PUSH0 DUP1 REVERT JUMPDEST POP JUMP JUMPDEST PUSH0 DUP2 CALLDATALOAD SWAP1 POP PUSH2 0xAB5 DUP2 PUSH2 0xA91 JUMP JUMPDEST SWAP3 SWAP2 POP POP JUMP JUMPDEST PUSH0 DUP1 PUSH1 0x40 DUP4 DUP6 SUB SLT ISZERO PUSH2 0xAD1 JUMPI PUSH2 0xAD0 PUSH2 0x94D JUMP JUMPDEST JUMPDEST PUSH0 DUP4 ADD CALLDATALOAD PUSH8 0xFFFFFFFFFFFFFFFF DUP2 GT ISZERO PUSH2 0xAEE JUMPI PUSH2 0xAED PUSH2 0x951 JUMP JUMPDEST JUMPDEST PUSH2 0xAFA DUP6 DUP3 DUP7 ADD PUSH2 0xA64 JUMP JUMPDEST SWAP3 POP POP PUSH1 0x20 PUSH2 0xB0B DUP6 DUP3 DUP7 ADD PUSH2 0xAA7 JUMP JUMPDEST SWAP2 POP POP SWAP3 POP SWAP3 SWAP1 POP JUMP JUMPDEST PUSH0 PUSH1 0x20 DUP3 DUP5 SUB SLT ISZERO PUSH2 0xB2A JUMPI PUSH2 0xB29 PUSH2 0x94D JUMP JUMPDEST JUMPDEST PUSH0 PUSH2 0xB37 DUP5 DUP3 DUP6 ADD PUSH2 0xAA7 JUMP JUMPDEST SWAP2 POP POP SWAP3 SWAP2 POP POP JUMP JUMPDEST PUSH0 DUP2 MLOAD SWAP1 POP SWAP2 SWAP1 POP JUMP JUMPDEST PUSH0 DUP3 DUP3 MSTORE PUSH1 0x20 DUP3 ADD SWAP1 POP SWAP3 SWAP2 POP POP JUMP JUMPDEST PUSH0 JUMPDEST DUP4 DUP2 LT ISZERO PUSH2 0xB77 JUMPI DUP1 DUP3 ADD MLOAD DUP2 DUP5 ADD MSTORE PUSH1 0x20 DUP2 ADD SWAP1 POP PUSH2 0xB5C JUMP JUMPDEST PUSH0 DUP5 DUP5 ADD MSTORE POP POP POP POP JUMP JUMPDEST PUSH0 PUSH2 0xB8C DUP3 PUSH2 0xB40 JUMP JUMPDEST PUSH2 0xB96 DUP2 DUP6 PUSH2 0xB4A JUMP JUMPDEST SWAP4 POP PUSH2 0xBA6 DUP2 DUP6 PUSH1 0x20 DUP7 ADD PUSH2 0xB5A JUMP JUMPDEST PUSH2 0xBAF DUP2 PUSH2 0x95D JUMP JUMPDEST DUP5 ADD SWAP2 POP POP SWAP3 SWAP2 POP POP JUMP JUMPDEST PUSH0 PUSH20 0xFFFFFFFFFFFFFFFFFFFFFFFFFFFFFFFFFFFFFFFF DUP3 AND SWAP1 POP SWAP2 SWAP1 POP JUMP JUMPDEST PUSH0 PUSH2 0xBE3 DUP3 PUSH2 0xBBA JUMP JUMPDEST SWAP1 POP SWAP2 SWAP1 POP JUMP JUMPDEST PUSH2 0xBF3 DUP2 PUSH2 0xBD9 JUMP JUMPDEST DUP3 MSTORE POP POP JUMP JUMPDEST PUSH0 PUSH1 0x80 DUP3 ADD SWAP1 POP DUP2 DUP2 SUB PUSH0 DUP4 ADD MSTORE PUSH2 0xC11 DUP2 DUP8 PUSH2 0xB82 JUMP JUMPDEST SWAP1 POP PUSH2 0xC20 PUSH1 0x20 DUP4 ADD DUP7 PUSH2 0x91C JUMP JUMPDEST PUSH2 0xC2D PUSH1 0x40 DUP4 ADD DUP6 PUSH2 0xBEA JUMP JUMPDEST PUSH2 0xC3A PUSH1 0x60 DUP4 ADD DUP5 PUSH2 0xBEA JUMP JUMPDEST SWAP6 SWAP5 POP POP POP POP POP JUMP JUMPDEST PUSH0 PUSH2 0xC4D DUP3 PUSH2 0xBBA JUMP JUMPDEST SWAP1 POP SWAP2 SWAP1 POP JUMP JUMPDEST PUSH2 0xC5D DUP2 PUSH2 0xC43 JUMP JUMPDEST DUP2 EQ PUSH2 0xC67 JUMPI PUSH0 DUP1 REVERT JUMPDEST POP JUMP JUMPDEST PUSH0 DUP2 CALLDATALOAD SWAP1 POP PUSH2 0xC78 DUP2 PUSH2 0xC54 JUMP JUMPDEST SWAP3 SWAP2 POP POP JUMP JUMPDEST PUSH0 DUP1 PUSH1 0x40 DUP4 DUP6 SUB SLT ISZERO PUSH2 0xC94 JUMPI PUSH2 0xC93 PUSH2 0x94D JUMP JUMPDEST JUMPDEST PUSH0 PUSH2 0xCA1 DUP6 DUP3 DUP7 ADD PUSH2 0xAA7 JUMP JUMPDEST SWAP3 POP POP PUSH1 0x20 PUSH2 0xCB2 DUP6 DUP3 DUP7 ADD PUSH2 0xC6A JUMP JUMPDEST SWAP2 POP POP SWAP3 POP SWAP3 SWAP1 POP JUMP JUMPDEST PUSH32 0x496E76616C696420616464726573730000000000000000000000000000000000 PUSH0 DUP3 ADD MSTORE POP JUMP JUMPDEST PUSH0 PUSH2 0xCF0 PUSH1 0xF DUP4 PUSH2 0xB4A JUMP JUMPDEST SWAP2 POP PUSH2 0xCFB DUP3 PUSH2 0xCBC JUMP JUMPDEST PUSH1 0x20 DUP3 ADD SWAP1 POP SWAP2 SWAP1 POP JUMP JUMPDEST PUSH0 PUSH1 0x20 DUP3 ADD SWAP1 POP DUP2 DUP2 SUB PUSH0 DUP4 ADD MSTORE PUSH2 0xD1D DUP2 PUSH2 0xCE4 JUMP JUMPDEST SWAP1 POP SWAP2 SWAP1 POP JUMP JUMPDEST PUSH32 0x4E487B7100000000000000000000000000000000000000000000000000000000 PUSH0 MSTORE PUSH1 0x11 PUSH1 0x4 MSTORE PUSH1 0x24 PUSH0 REVERT JUMPDEST PUSH0 PUSH2 0xD5B DUP3 PUSH2 0x913 JUMP JUMPDEST SWAP2 POP PUSH32 0xFFFFFFFFFFFFFFFFFFFFFFFFFFFFFFFFFFFFFFFFFFFFFFFFFFFFFFFFFFFFFFFF DUP3 SUB PUSH2 0xD8D JUMPI PUSH2 0xD8C PUSH2 0xD24 JUMP JUMPDEST JUMPDEST PUSH1 0x1 DUP3 ADD SWAP1 POP SWAP2 SWAP1 POP JUMP JUMPDEST PUSH32 0x4E487B7100000000000000000000000000000000000000000000000000000000 PUSH0 MSTORE PUSH1 0x22 PUSH1 0x4 MSTORE PUSH1 0x24 PUSH0 REVERT JUMPDEST PUSH0 PUSH1 0x2 DUP3 DIV SWAP1 POP PUSH1 0x1 DUP3 AND DUP1 PUSH2 0xDDC JUMPI PUSH1 0x7F DUP3 AND SWAP2 POP JUMPDEST PUSH1 0x20 DUP3 LT DUP2 SUB PUSH2 0xDEF JUMPI PUSH2 0xDEE PUSH2 0xD98 JUMP JUMPDEST JUMPDEST POP SWAP2 SWAP1 POP JUMP JUMPDEST PUSH0 DUP2 SWAP1 POP DUP2 PUSH0 MSTORE PUSH1 0x20 PUSH0 KECCAK256 SWAP1 POP SWAP2 SWAP1 POP JUMP JUMPDEST PUSH0 PUSH1 0x20 PUSH1 0x1F DUP4 ADD DIV SWAP1 POP SWAP2 SWAP1 POP JUMP JUMPDEST PUSH0 DUP3 DUP3 SHL SWAP1 POP SWAP3 SWAP2 POP POP JUMP JUMPDEST PUSH0 PUSH1 0x8 DUP4 MUL PUSH2 0xE51 PUSH32 0xFFFFFFFFFFFFFFFFFFFFFFFFFFFFFFFFFFFFFFFFFFFFFFFFFFFFFFFFFFFFFFFF DUP3 PUSH2 0xE16 JUMP JUMPDEST PUSH2 0xE5B DUP7 DUP4 PUSH2 0xE16 JUMP JUMPDEST SWAP6 POP DUP1 NOT DUP5 AND SWAP4 POP DUP1 DUP7 AND DUP5 OR SWAP3 POP POP POP SWAP4 SWAP3 POP POP POP JUMP JUMPDEST PUSH0 DUP2 SWAP1 POP SWAP2 SWAP1 POP JUMP JUMPDEST PUSH0 PUSH2 0xE96 PUSH2 0xE91 PUSH2 0xE8C DUP5 PUSH2 0x913 JUMP JUMPDEST PUSH2 0xE73 JUMP JUMPDEST PUSH2 0x913 JUMP JUMPDEST SWAP1 POP SWAP2 SWAP1 POP JUMP JUMPDEST PUSH0 DUP2 SWAP1 POP SWAP2 SWAP1 POP JUMP JUMPDEST PUSH2 0xEAF DUP4 PUSH2 0xE7C JUMP JUMPDEST PUSH2 0xEC3 PUSH2 0xEBB DUP3 PUSH2 0xE9D JUMP JUMPDEST DUP5 DUP5 SLOAD PUSH2 0xE22 JUMP JUMPDEST DUP3 SSTORE POP POP POP POP JUMP JUMPDEST PUSH0 SWAP1 JUMP JUMPDEST PUSH2 0xED7 PUSH2 0xECB JUMP JUMPDEST PUSH2 0xEE2 DUP2 DUP5 DUP5 PUSH2 0xEA6 JUMP JUMPDEST POP POP POP JUMP JUMPDEST JUMPDEST DUP2 DUP2 LT ISZERO PUSH2 0xF05 JUMPI PUSH2 0xEFA PUSH0 DUP3 PUSH2 0xECF JUMP JUMPDEST PUSH1 0x1 DUP2 ADD SWAP1 POP PUSH2 0xEE8 JUMP JUMPDEST POP POP JUMP JUMPDEST PUSH1 0x1F DUP3 GT ISZERO PUSH2 0xF4A JUMPI PUSH2 0xF1B DUP2 PUSH2 0xDF5 JUMP JUMPDEST PUSH2 0xF24 DUP5 PUSH2 0xE07 JUMP JUMPDEST DUP2 ADD PUSH1 0x20 DUP6 LT ISZERO PUSH2 0xF33 JUMPI DUP2 SWAP1 POP JUMPDEST PUSH2 0xF47 PUSH2 0xF3F DUP6 PUSH2 0xE07 JUMP JUMPDEST DUP4 ADD DUP3 PUSH2 0xEE7 JUMP JUMPDEST POP POP JUMPDEST POP POP POP JUMP JUMPDEST PUSH0 DUP3 DUP3 SHR SWAP1 POP SWAP3 SWAP2 POP POP JUMP JUMPDEST PUSH0 PUSH2 0xF6A PUSH0 NOT DUP5 PUSH1 0x8 MUL PUSH2 0xF4F JUMP JUMPDEST NOT DUP1 DUP4 AND SWAP2 POP POP SWAP3 SWAP2 POP POP JUMP JUMPDEST PUSH0 PUSH2 0xF82 DUP4 DUP4 PUSH2 0xF5B JUMP JUMPDEST SWAP2 POP DUP3 PUSH1 0x2 MUL DUP3 OR SWAP1 POP SWAP3 SWAP2 POP POP JUMP JUMPDEST PUSH2 0xF9B DUP3 PUSH2 0xB40 JUMP JUMPDEST PUSH8 0xFFFFFFFFFFFFFFFF DUP2 GT ISZERO PUSH2 0xFB4 JUMPI PUSH2 0xFB3 PUSH2 0x96D JUMP JUMPDEST JUMPDEST PUSH2 0xFBE DUP3 SLOAD PUSH2 0xDC5 JUMP JUMPDEST PUSH2 0xFC9 DUP3 DUP3 DUP6 PUSH2 0xF09 JUMP JUMPDEST PUSH0 PUSH1 0x20 SWAP1 POP PUSH1 0x1F DUP4 GT PUSH1 0x1 DUP2 EQ PUSH2 0xFFA JUMPI PUSH0 DUP5 ISZERO PUSH2 0xFE8 JUMPI DUP3 DUP8 ADD MLOAD SWAP1 POP JUMPDEST PUSH2 0xFF2 DUP6 DUP3 PUSH2 0xF77 JUMP JUMPDEST DUP7 SSTORE POP PUSH2 0x1059 JUMP JUMPDEST PUSH1 0x1F NOT DUP5 AND PUSH2 0x1008 DUP7 PUSH2 0xDF5 JUMP JUMPDEST PUSH0 JUMPDEST DUP3 DUP2 LT ISZERO PUSH2 0x102F JUMPI DUP5 DUP10 ADD MLOAD DUP3 SSTORE PUSH1 0x1 DUP3 ADD SWAP2 POP PUSH1 0x20 DUP6 ADD SWAP5 POP PUSH1 0x20 DUP2 ADD SWAP1 POP PUSH2 0x100A JUMP JUMPDEST DUP7 DUP4 LT ISZERO PUSH2 0x104C JUMPI DUP5 DUP10 ADD MLOAD PUSH2 0x1048 PUSH1 0x1F DUP10 AND DUP3 PUSH2 0xF5B JUMP JUMPDEST DUP4 SSTORE POP JUMPDEST PUSH1 0x1 PUSH1 0x2 DUP9 MUL ADD DUP9 SSTORE POP POP POP JUMPDEST POP POP POP POP POP POP JUMP JUMPDEST PUSH32 0x4F6E6C7920746865206F776E65722063616E20706572666F726D207468697320 PUSH0 DUP3 ADD MSTORE PUSH32 0x616374696F6E0000000000000000000000000000000000000000000000000000 PUSH1 0x20 DUP3 ADD MSTORE POP JUMP JUMPDEST PUSH0 PUSH2 0x10BB PUSH1 0x26 DUP4 PUSH2 0xB4A JUMP JUMPDEST SWAP2 POP PUSH2 0x10C6 DUP3 PUSH2 0x1061 JUMP JUMPDEST PUSH1 0x40 DUP3 ADD SWAP1 POP SWAP2 SWAP1 POP JUMP JUMPDEST PUSH0 PUSH1 0x20 DUP3 ADD SWAP1 POP DUP2 DUP2 SUB PUSH0 DUP4 ADD MSTORE PUSH2 0x10E8 DUP2 PUSH2 0x10AF JUMP JUMPDEST SWAP1 POP SWAP2 SWAP1 POP JUMP JUMPDEST PUSH32 0x496E73756666696369656E742066756E647320746F2062757920746869732073 PUSH0 DUP3 ADD MSTORE PUSH32 0x6563757269747920706170657200000000000000000000000000000000000000 PUSH1 0x20 DUP3 ADD MSTORE POP JUMP JUMPDEST PUSH0 PUSH2 0x1149 PUSH1 0x2D DUP4 PUSH2 0xB4A JUMP JUMPDEST SWAP2 POP PUSH2 0x1154 DUP3 PUSH2 0x10EF JUMP JUMPDEST PUSH1 0x40 DUP3 ADD SWAP1 POP SWAP2 SWAP1 POP JUMP JUMPDEST PUSH0 PUSH1 0x20 DUP3 ADD SWAP1 POP DUP2 DUP2 SUB PUSH0 DUP4 ADD MSTORE PUSH2 0x1176 DUP2 PUSH2 0x113D JUMP JUMPDEST SWAP1 POP SWAP2 SWAP1 POP JUMP JUMPDEST PUSH32 0x546869732073656375726974792070617065722068617320616C726561647920 PUSH0 DUP3 ADD MSTORE PUSH32 0x6265656E20736F6C640000000000000000000000000000000000000000000000 PUSH1 0x20 DUP3 ADD MSTORE POP JUMP JUMPDEST PUSH0 PUSH2 0x11D7 PUSH1 0x29 DUP4 PUSH2 0xB4A JUMP JUMPDEST SWAP2 POP PUSH2 0x11E2 DUP3 PUSH2 0x117D JUMP JUMPDEST PUSH1 0x40 DUP3 ADD SWAP1 POP SWAP2 SWAP1 POP JUMP JUMPDEST PUSH0 PUSH1 0x20 DUP3 ADD SWAP1 POP DUP2 DUP2 SUB PUSH0 DUP4 ADD MSTORE PUSH2 0x1204 DUP2 PUSH2 0x11CB JUMP JUMPDEST SWAP1 POP SWAP2 SWAP1 POP JUMP INVALID LOG2 PUSH5 0x6970667358 0x22 SLT KECCAK256 SWAP10 0xE2 0x1F DUP13 0xCE EXTCODESIZE CODECOPY 0x2B PUSH2 0x5C0A PUSH7 0x3F5DBD70D0F0FC JUMP PUSH8 0x1B2657B7732F995D 0xEB 0xAB DUP3 PUSH5 0x736F6C6343 STOP ADDMOD AND STOP CALLER "
				},
				"gasEstimates": {
					"creation": {
						"codeDepositCost": "934600",
						"executionCost": "5978",
						"totalCost": "940578"
					},
					"external": {
						"add_security_paper(string,uint256)": "infinite",
						"buy_security_paper(uint256)": "infinite",
						"exchange_security_paper_ownership(uint256,address)": "51671",
						"get_security_paper_details(uint256)": "infinite",
						"total_securities()": "2402"
					}
				},
				"methodIdentifiers": {
					"add_security_paper(string,uint256)": "a74d10b7",
					"buy_security_paper(uint256)": "ab60c815",
					"exchange_security_paper_ownership(uint256,address)": "ae0fae05",
					"get_security_paper_details(uint256)": "a96eaf5e",
					"total_securities()": "74b461f1"
				}
			},
			"storageLayout": {
				"storage": [
					{
						"astId": 15,
						"contract": "contract.sol:security_paper_exchange",
						"label": "total_securities",
						"offset": 0,
						"slot": "0",
						"type": "t_uint256"
					},
					{
						"astId": 20,
						"contract": "contract.sol:security_paper_exchange",
						"label": "securitiesList",
						"offset": 0,
						"slot": "1",
						"type": "t_mapping(t_uint256,t_struct(security_paper)12_storage)"
					}
				],
				"types": {
					"t_address_payable": {
						"encoding": "inplace",
						"label": "address payable",
						"numberOfBytes": "20"
					},
					"t_mapping(t_uint256,t_struct(security_paper)12_storage)": {
						"encoding": "mapping",
						"key": "t_uint256",
						"label": "mapping(uint256 => struct security_paper_exchange.security_paper)",
						"numberOfBytes": "32",
						"value": "t_struct(security_paper)12_storage"
					},
					"t_string_storage": {
						"encoding": "bytes",
						"label": "string",
						"numberOfBytes": "32"
					},
					"t_struct(security_paper)12_storage": {
						"encoding": "inplace",
						"label": "struct security_paper_exchange.security_paper",
						"members": [
							{
								"astId": 3,
								"contract": "contract.sol:security_paper_exchange",
								"label": "id",
								"offset": 0,
								"slot": "0",
								"type": "t_uint256"
							},
							{
								"astId": 5,
								"contract": "contract.sol:security_paper_exchange",
								"label": "name",
								"offset": 0,
								"slot": "1",
								"type": "t_string_storage"
							},
							{
								"astId": 7,
								"contract": "contract.sol:security_paper_exchange",
								"label": "price",
								"offset": 0,
								"slot": "2",
								"type": "t_uint256"
							},
							{
								"astId": 9,
								"contract": "contract.sol:security_paper_exchange",
								"label": "owner",
								"offset": 0,
								"slot": "3",
								"type": "t_address_payable"
							},
							{
								"astId": 11,
								"contract": "contract.sol:security_paper_exchange",
								"label": "buyer",
								"offset": 0,
								"slot": "4",
								"type": "t_address_payable"
							}
						],
						"numberOfBytes": "160"
					},
					"t_uint256": {
						"encoding": "inplace",
						"label": "uint256",
						"numberOfBytes": "32"
					}
				}
			},
			"userdoc": {
				"kind": "user",
				"methods": {},
				"version": 1
			}
		}
	}
}